{
  "abi": [
    {
      "inputs": [],
      "stateMutability": "nonpayable",
      "type": "constructor"
    },
    {
      "anonymous": false,
      "inputs": [
        {
          "indexed": true,
          "internalType": "address",
          "name": "owner",
          "type": "address"
        },
        {
          "indexed": true,
          "internalType": "address",
          "name": "spender",
          "type": "address"
        },
        {
          "indexed": true,
          "internalType": "uint256",
          "name": "id",
          "type": "uint256"
        }
      ],
      "name": "Approval",
      "type": "event"
    },
    {
      "anonymous": false,
      "inputs": [
        {
          "indexed": true,
          "internalType": "address",
          "name": "owner",
          "type": "address"
        },
        {
          "indexed": true,
          "internalType": "address",
          "name": "operator",
          "type": "address"
        },
        {
          "indexed": false,
          "internalType": "bool",
          "name": "approved",
          "type": "bool"
        }
      ],
      "name": "ApprovalForAll",
      "type": "event"
    },
    {
      "anonymous": false,
      "inputs": [
        {
          "indexed": true,
          "internalType": "address",
          "name": "from",
          "type": "address"
        },
        {
          "indexed": true,
          "internalType": "address",
          "name": "to",
          "type": "address"
        },
        {
          "indexed": true,
          "internalType": "uint256",
          "name": "id",
          "type": "uint256"
        }
      ],
      "name": "Transfer",
      "type": "event"
    },
    {
      "inputs": [
        {
          "internalType": "address",
          "name": "spender",
          "type": "address"
        },
        {
          "internalType": "uint256",
          "name": "id",
          "type": "uint256"
        }
      ],
      "name": "approve",
      "outputs": [],
      "stateMutability": "nonpayable",
      "type": "function"
    },
    {
      "inputs": [
        {
          "internalType": "address",
          "name": "",
          "type": "address"
        }
      ],
      "name": "balanceOf",
      "outputs": [
        {
          "internalType": "uint256",
          "name": "",
          "type": "uint256"
        }
      ],
      "stateMutability": "view",
      "type": "function"
    },
    {
      "inputs": [
        {
          "internalType": "uint256",
          "name": "",
          "type": "uint256"
        }
      ],
      "name": "getApproved",
      "outputs": [
        {
          "internalType": "address",
          "name": "",
          "type": "address"
        }
      ],
      "stateMutability": "view",
      "type": "function"
    },
    {
      "inputs": [
        {
          "internalType": "address",
          "name": "",
          "type": "address"
        },
        {
          "internalType": "address",
          "name": "",
          "type": "address"
        }
      ],
      "name": "isApprovedForAll",
      "outputs": [
        {
          "internalType": "bool",
          "name": "",
          "type": "bool"
        }
      ],
      "stateMutability": "view",
      "type": "function"
    },
    {
      "inputs": [
        {
          "internalType": "address",
          "name": "to",
          "type": "address"
        },
        {
          "internalType": "uint256",
          "name": "id",
          "type": "uint256"
        }
      ],
      "name": "mint",
      "outputs": [],
      "stateMutability": "nonpayable",
      "type": "function"
    },
    {
      "inputs": [
        {
          "internalType": "uint256",
          "name": "id",
          "type": "uint256"
        }
      ],
      "name": "mint",
      "outputs": [],
      "stateMutability": "nonpayable",
      "type": "function"
    },
    {
      "inputs": [],
      "name": "name",
      "outputs": [
        {
          "internalType": "string",
          "name": "",
          "type": "string"
        }
      ],
      "stateMutability": "view",
      "type": "function"
    },
    {
      "inputs": [
        {
          "internalType": "uint256",
          "name": "",
          "type": "uint256"
        }
      ],
      "name": "ownerOf",
      "outputs": [
        {
          "internalType": "address",
          "name": "",
          "type": "address"
        }
      ],
      "stateMutability": "view",
      "type": "function"
    },
    {
      "inputs": [
        {
          "internalType": "address",
          "name": "from",
          "type": "address"
        },
        {
          "internalType": "address",
          "name": "to",
          "type": "address"
        },
        {
          "internalType": "uint256",
          "name": "id",
          "type": "uint256"
        }
      ],
      "name": "safeTransferFrom",
      "outputs": [],
      "stateMutability": "nonpayable",
      "type": "function"
    },
    {
      "inputs": [
        {
          "internalType": "address",
          "name": "from",
          "type": "address"
        },
        {
          "internalType": "address",
          "name": "to",
          "type": "address"
        },
        {
          "internalType": "uint256",
          "name": "id",
          "type": "uint256"
        },
        {
          "internalType": "bytes",
          "name": "data",
          "type": "bytes"
        }
      ],
      "name": "safeTransferFrom",
      "outputs": [],
      "stateMutability": "nonpayable",
      "type": "function"
    },
    {
      "inputs": [
        {
          "internalType": "address",
          "name": "operator",
          "type": "address"
        },
        {
          "internalType": "bool",
          "name": "approved",
          "type": "bool"
        }
      ],
      "name": "setApprovalForAll",
      "outputs": [],
      "stateMutability": "nonpayable",
      "type": "function"
    },
    {
      "inputs": [
        {
          "internalType": "bytes4",
          "name": "interfaceId",
          "type": "bytes4"
        }
      ],
      "name": "supportsInterface",
      "outputs": [
        {
          "internalType": "bool",
          "name": "",
          "type": "bool"
        }
      ],
      "stateMutability": "pure",
      "type": "function"
    },
    {
      "inputs": [],
      "name": "symbol",
      "outputs": [
        {
          "internalType": "string",
          "name": "",
          "type": "string"
        }
      ],
      "stateMutability": "view",
      "type": "function"
    },
    {
      "inputs": [
        {
          "internalType": "uint256",
          "name": "id",
          "type": "uint256"
        }
      ],
      "name": "tokenURI",
      "outputs": [
        {
          "internalType": "string",
          "name": "",
          "type": "string"
        }
      ],
      "stateMutability": "pure",
      "type": "function"
    },
    {
      "inputs": [
        {
          "internalType": "address",
          "name": "from",
          "type": "address"
        },
        {
          "internalType": "address",
          "name": "to",
          "type": "address"
        },
        {
          "internalType": "uint256",
          "name": "id",
          "type": "uint256"
        }
      ],
      "name": "transferFrom",
      "outputs": [],
      "stateMutability": "nonpayable",
      "type": "function"
    }
  ],
  "bytecode": {
    "object": "0x60806040523480156200001157600080fd5b50604080518082018252600c81526b6d6f636b20486f707065727360a01b60208083019182528351808501909452600484526306d484f560e41b908401528151919291620000629160009162000081565b5080516200007890600190602084019062000081565b50505062000164565b8280546200008f9062000127565b90600052602060002090601f016020900481019282620000b35760008555620000fe565b82601f10620000ce57805160ff1916838001178555620000fe565b82800160010185558215620000fe579182015b82811115620000fe578251825591602001919060010190620000e1565b506200010c92915062000110565b5090565b5b808211156200010c576000815560010162000111565b600181811c908216806200013c57607f821691505b602082108114156200015e57634e487b7160e01b600052602260045260246000fd5b50919050565b610f9080620001746000396000f3fe608060405234801561001057600080fd5b50600436106100f55760003560e01c80636352211e11610097578063a22cb46511610066578063a22cb46514610238578063b88d4fde1461024b578063c87b56dd1461025e578063e985e9c51461027157600080fd5b80636352211e146101c657806370a08231146101ef57806395d89b411461021d578063a0712d681461022557600080fd5b8063095ea7b3116100d3578063095ea7b31461017857806323b872dd1461018d57806340c10f19146101a057806342842e0e146101b357600080fd5b806301ffc9a7146100fa57806306fdde0314610122578063081812fc14610137575b600080fd5b61010d610108366004610b16565b61029f565b60405190151581526020015b60405180910390f35b61012a6102f1565b6040516101199190610b92565b610160610145366004610ba5565b6004602052600090815260409020546001600160a01b031681565b6040516001600160a01b039091168152602001610119565b61018b610186366004610bda565b61037f565b005b61018b61019b366004610c04565b610466565b61018b6101ae366004610bda565b61062d565b61018b6101c1366004610c04565b61063b565b6101606101d4366004610ba5565b6003602052600090815260409020546001600160a01b031681565b61020f6101fd366004610c40565b60026020526000908152604090205481565b604051908152602001610119565b61012a610733565b61018b610233366004610ba5565b610740565b61018b610246366004610c5b565b61074d565b61018b610259366004610cad565b6107b9565b61012a61026c366004610ba5565b61089e565b61010d61027f366004610d89565b600560209081526000928352604080842090915290825290205460ff1681565b60006301ffc9a760e01b6001600160e01b0319831614806102d057506380ac58cd60e01b6001600160e01b03198316145b806102eb5750635b5e139f60e01b6001600160e01b03198316145b92915050565b600080546102fe90610dbc565b80601f016020809104026020016040519081016040528092919081815260200182805461032a90610dbc565b80156103775780601f1061034c57610100808354040283529160200191610377565b820191906000526020600020905b81548152906001019060200180831161035a57829003601f168201915b505050505081565b6000818152600360205260409020546001600160a01b0316338114806103c857506001600160a01b038116600090815260056020908152604080832033845290915290205460ff165b61040a5760405162461bcd60e51b815260206004820152600e60248201526d1393d517d055551213d49256915160921b60448201526064015b60405180910390fd5b60008281526004602052604080822080546001600160a01b0319166001600160a01b0387811691821790925591518593918516917f8c5be1e5ebec7d5bd14f71427d1e84f3dd0314c0f7b2291e5b200ac8c7c3b92591a4505050565b6000818152600360205260409020546001600160a01b038481169116146104bc5760405162461bcd60e51b815260206004820152600a60248201526957524f4e475f46524f4d60b01b6044820152606401610401565b6001600160a01b0382166105065760405162461bcd60e51b81526020600482015260116024820152701253959053125117d49150d25412515395607a1b6044820152606401610401565b336001600160a01b038416148061053357506000818152600460205260409020546001600160a01b031633145b8061056157506001600160a01b038316600090815260056020908152604080832033845290915290205460ff165b61059e5760405162461bcd60e51b815260206004820152600e60248201526d1393d517d055551213d49256915160921b6044820152606401610401565b6001600160a01b0380841660008181526002602090815260408083208054600019019055938616808352848320805460010190558583526003825284832080546001600160a01b03199081168317909155600490925284832080549092169091559251849392917fddf252ad1be2c89b69c2b068fc378daa952ba7f163c4a11628f55a4df523b3ef91a4505050565b61063782826108ef565b5050565b610646838383610466565b6001600160a01b0382163b15806106ef5750604051630a85bd0160e11b8082523360048301526001600160a01b03858116602484015260448301849052608060648401526000608484015290919084169063150b7a029060a4016020604051808303816000875af11580156106bf573d6000803e3d6000fd5b505050506040513d601f19601f820116820180604052508101906106e39190610df7565b6001600160e01b031916145b61072e5760405162461bcd60e51b815260206004820152601060248201526f155394d0519157d49150d2541251539560821b6044820152606401610401565b505050565b600180546102fe90610dbc565b61074a33826108ef565b50565b3360008181526005602090815260408083206001600160a01b03871680855290835292819020805460ff191686151590811790915590519081529192917f17307eab39ab6107e8899845ad3d59bd9653f200f220920489ca2b5937696c31910160405180910390a35050565b6107c4848484610466565b6001600160a01b0383163b15806108595750604051630a85bd0160e11b808252906001600160a01b0385169063150b7a029061080a903390899088908890600401610e14565b6020604051808303816000875af1158015610829573d6000803e3d6000fd5b505050506040513d601f19601f8201168201806040525081019061084d9190610df7565b6001600160e01b031916145b6108985760405162461bcd60e51b815260206004820152601060248201526f155394d0519157d49150d2541251539560821b6044820152606401610401565b50505050565b60606000604051806060016040528060268152602001610f35602691399050806108c7846109fa565b6040516020016108d8929190610e51565b604051602081830303815290604052915050919050565b6001600160a01b0382166109395760405162461bcd60e51b81526020600482015260116024820152701253959053125117d49150d25412515395607a1b6044820152606401610401565b6000818152600360205260409020546001600160a01b03161561098f5760405162461bcd60e51b815260206004820152600e60248201526d1053149150511657d3525395115160921b6044820152606401610401565b6001600160a01b038216600081815260026020908152604080832080546001019055848352600390915280822080546001600160a01b0319168417905551839291907fddf252ad1be2c89b69c2b068fc378daa952ba7f163c4a11628f55a4df523b3ef908290a45050565b606081610a1e5750506040805180820190915260018152600360fc1b602082015290565b8160005b8115610a485780610a3281610e96565b9150610a419050600a83610ec7565b9150610a22565b60008167ffffffffffffffff811115610a6357610a63610c97565b6040519080825280601f01601f191660200182016040528015610a8d576020820181803683370190505b5090505b8415610af857610aa2600183610edb565b9150610aaf600a86610ef2565b610aba906030610f06565b60f81b818381518110610acf57610acf610f1e565b60200101906001600160f81b031916908160001a905350610af1600a86610ec7565b9450610a91565b949350505050565b6001600160e01b03198116811461074a57600080fd5b600060208284031215610b2857600080fd5b8135610b3381610b00565b9392505050565b60005b83811015610b55578181015183820152602001610b3d565b838111156108985750506000910152565b60008151808452610b7e816020860160208601610b3a565b601f01601f19169290920160200192915050565b602081526000610b336020830184610b66565b600060208284031215610bb757600080fd5b5035919050565b80356001600160a01b0381168114610bd557600080fd5b919050565b60008060408385031215610bed57600080fd5b610bf683610bbe565b946020939093013593505050565b600080600060608486031215610c1957600080fd5b610c2284610bbe565b9250610c3060208501610bbe565b9150604084013590509250925092565b600060208284031215610c5257600080fd5b610b3382610bbe565b60008060408385031215610c6e57600080fd5b610c7783610bbe565b915060208301358015158114610c8c57600080fd5b809150509250929050565b634e487b7160e01b600052604160045260246000fd5b60008060008060808587031215610cc357600080fd5b610ccc85610bbe565b9350610cda60208601610bbe565b925060408501359150606085013567ffffffffffffffff80821115610cfe57600080fd5b818701915087601f830112610d1257600080fd5b813581811115610d2457610d24610c97565b604051601f8201601f19908116603f01168101908382118183101715610d4c57610d4c610c97565b816040528281528a6020848701011115610d6557600080fd5b82602086016020830137600060208483010152809550505050505092959194509250565b60008060408385031215610d9c57600080fd5b610da583610bbe565b9150610db360208401610bbe565b90509250929050565b600181811c90821680610dd057607f821691505b60208210811415610df157634e487b7160e01b600052602260045260246000fd5b50919050565b600060208284031215610e0957600080fd5b8151610b3381610b00565b6001600160a01b0385811682528416602082015260408101839052608060608201819052600090610e4790830184610b66565b9695505050505050565b60008351610e63818460208801610b3a565b835190830190610e77818360208801610b3a565b01949350505050565b634e487b7160e01b600052601160045260246000fd5b6000600019821415610eaa57610eaa610e80565b5060010190565b634e487b7160e01b600052601260045260246000fd5b600082610ed657610ed6610eb1565b500490565b600082821015610eed57610eed610e80565b500390565b600082610f0157610f01610eb1565b500690565b60008219821115610f1957610f19610e80565b500190565b634e487b7160e01b600052603260045260246000fdfe68747470733a2f2f686f707065727367616d652e696f2f6170692f7572692f686f707065722fa26469706673582212202eb8366c40a821c53f7d3b27eaca088beff1bea0b2c457d5559e5b2538b7edb064736f6c634300080a0033",
    "linkReferences": {}
  }
}