{
  "abi": [
    {
      "inputs": [
        {
          "internalType": "address",
          "name": "_lToken",
          "type": "address"
        },
        {
          "internalType": "address",
          "name": "_nftCollection",
          "type": "address"
        }
      ],
      "stateMutability": "nonpayable",
      "type": "constructor"
    },
    {
      "anonymous": false,
      "inputs": [
        {
          "indexed": true,
          "internalType": "address",
          "name": "previousOwner",
          "type": "address"
        },
        {
          "indexed": true,
          "internalType": "address",
          "name": "newOwner",
          "type": "address"
        }
      ],
      "name": "OwnershipTransferred",
      "type": "event"
    },
    {
      "inputs": [],
      "name": "FLOOR_PRICE",
      "outputs": [
        {
          "internalType": "uint256",
          "name": "",
          "type": "uint256"
        }
      ],
      "stateMutability": "view",
      "type": "function"
    },
    {
      "inputs": [],
      "name": "MAX_LTV",
      "outputs": [
        {
          "internalType": "uint256",
          "name": "",
          "type": "uint256"
        }
      ],
      "stateMutability": "view",
      "type": "function"
    },
    {
      "inputs": [
        {
          "internalType": "uint256",
          "name": "id",
          "type": "uint256"
        },
        {
          "internalType": "uint256",
          "name": "amt",
          "type": "uint256"
        }
      ],
      "name": "borrow",
      "outputs": [],
      "stateMutability": "nonpayable",
      "type": "function"
    },
    {
      "inputs": [
        {
          "internalType": "uint256",
          "name": "id",
          "type": "uint256"
        }
      ],
      "name": "declareDefault",
      "outputs": [],
      "stateMutability": "nonpayable",
      "type": "function"
    },
    {
      "inputs": [
        {
          "internalType": "address",
          "name": "",
          "type": "address"
        }
      ],
      "name": "defaultInfo",
      "outputs": [
        {
          "internalType": "uint256",
          "name": "excessUSDCDue",
          "type": "uint256"
        },
        {
          "internalType": "uint256",
          "name": "outstandingLTokens",
          "type": "uint256"
        }
      ],
      "stateMutability": "view",
      "type": "function"
    },
    {
      "inputs": [
        {
          "internalType": "uint256",
          "name": "id",
          "type": "uint256"
        },
        {
          "internalType": "uint256",
          "name": "_bidPrice",
          "type": "uint256"
        }
      ],
      "name": "enterNewBid",
      "outputs": [],
      "stateMutability": "nonpayable",
      "type": "function"
    },
    {
      "inputs": [
        {
          "internalType": "uint256",
          "name": "",
          "type": "uint256"
        }
      ],
      "name": "highestBids",
      "outputs": [
        {
          "internalType": "address",
          "name": "user",
          "type": "address"
        },
        {
          "internalType": "uint256",
          "name": "bidPrice",
          "type": "uint256"
        },
        {
          "internalType": "uint256",
          "name": "bidAccepted",
          "type": "uint256"
        }
      ],
      "stateMutability": "view",
      "type": "function"
    },
    {
      "inputs": [
        {
          "internalType": "uint256",
          "name": "id",
          "type": "uint256"
        }
      ],
      "name": "interestDue",
      "outputs": [
        {
          "internalType": "uint256",
          "name": "",
          "type": "uint256"
        }
      ],
      "stateMutability": "view",
      "type": "function"
    },
    {
      "inputs": [
        {
          "internalType": "uint256",
          "name": "id",
          "type": "uint256"
        }
      ],
      "name": "isSolvent",
      "outputs": [
        {
          "internalType": "bool",
          "name": "",
          "type": "bool"
        }
      ],
      "stateMutability": "view",
      "type": "function"
    },
    {
      "inputs": [],
      "name": "lToken",
      "outputs": [
        {
          "internalType": "contract IERC20",
          "name": "",
          "type": "address"
        }
      ],
      "stateMutability": "view",
      "type": "function"
    },
    {
      "inputs": [],
      "name": "lendingVault",
      "outputs": [
        {
          "internalType": "contract ILendingVault",
          "name": "",
          "type": "address"
        }
      ],
      "stateMutability": "view",
      "type": "function"
    },
    {
      "inputs": [
        {
          "internalType": "uint256",
          "name": "id",
          "type": "uint256"
        },
        {
          "internalType": "uint256",
          "name": "newBidPrice",
          "type": "uint256"
        }
      ],
      "name": "modifyBid",
      "outputs": [],
      "stateMutability": "nonpayable",
      "type": "function"
    },
    {
      "inputs": [],
      "name": "nftCollection",
      "outputs": [
        {
          "internalType": "contract IERC721",
          "name": "",
          "type": "address"
        }
      ],
      "stateMutability": "view",
      "type": "function"
    },
    {
      "inputs": [
        {
          "internalType": "uint256",
          "name": "",
          "type": "uint256"
        }
      ],
      "name": "nftInfo",
      "outputs": [
        {
          "internalType": "address",
          "name": "depositor",
          "type": "address"
        },
        {
          "internalType": "uint256",
          "name": "borrowAmt",
          "type": "uint256"
        },
        {
          "internalType": "uint256",
          "name": "lastPaid",
          "type": "uint256"
        }
      ],
      "stateMutability": "view",
      "type": "function"
    },
    {
      "inputs": [
        {
          "internalType": "address",
          "name": "_operator",
          "type": "address"
        },
        {
          "internalType": "address",
          "name": "_from",
          "type": "address"
        },
        {
          "internalType": "uint256",
          "name": "_id",
          "type": "uint256"
        },
        {
          "internalType": "bytes",
          "name": "_data",
          "type": "bytes"
        }
      ],
      "name": "onERC721Received",
      "outputs": [
        {
          "internalType": "bytes4",
          "name": "",
          "type": "bytes4"
        }
      ],
      "stateMutability": "nonpayable",
      "type": "function"
    },
    {
      "inputs": [],
      "name": "owner",
      "outputs": [
        {
          "internalType": "address",
          "name": "",
          "type": "address"
        }
      ],
      "stateMutability": "view",
      "type": "function"
    },
    {
      "inputs": [],
      "name": "renounceOwnership",
      "outputs": [],
      "stateMutability": "nonpayable",
      "type": "function"
    },
    {
      "inputs": [
        {
          "internalType": "uint256",
          "name": "id",
          "type": "uint256"
        },
        {
          "internalType": "bool",
          "name": "withdrawNFT",
          "type": "bool"
        }
      ],
      "name": "repayPrincipal",
      "outputs": [],
      "stateMutability": "nonpayable",
      "type": "function"
    },
    {
      "inputs": [
        {
          "internalType": "uint256",
          "name": "_newLtv",
          "type": "uint256"
        },
        {
          "internalType": "uint256",
          "name": "_floor",
          "type": "uint256"
        }
      ],
      "name": "setBorrowParameters",
      "outputs": [],
      "stateMutability": "nonpayable",
      "type": "function"
    },
    {
      "inputs": [
        {
          "internalType": "address",
          "name": "_lendingVault",
          "type": "address"
        }
      ],
      "name": "setLendingVault",
      "outputs": [],
      "stateMutability": "nonpayable",
      "type": "function"
    },
    {
      "inputs": [
        {
          "internalType": "address",
          "name": "newOwner",
          "type": "address"
        }
      ],
      "name": "transferOwnership",
      "outputs": [],
      "stateMutability": "nonpayable",
      "type": "function"
    },
    {
      "inputs": [
        {
          "internalType": "uint256",
          "name": "id",
          "type": "uint256"
        }
      ],
      "name": "viewBorrowCapacity",
      "outputs": [
        {
          "internalType": "uint256",
          "name": "",
          "type": "uint256"
        }
      ],
      "stateMutability": "view",
      "type": "function"
    }
  ],
  "bytecode": {
    "object": "0x608060405234801561001057600080fd5b5060405161131a38038061131a83398101604081905261002f916100d5565b61003833610069565b600180546001600160a01b039384166001600160a01b03199182161790915560038054929093169116179055610108565b600080546001600160a01b038381166001600160a01b0319831681178455604051919092169283917f8be0079c531659141344cd1fd0a4f28419497f9722a3daafe3b4186f6b6457e09190a35050565b80516001600160a01b03811681146100d057600080fd5b919050565b600080604083850312156100e857600080fd5b6100f1836100b9565b91506100ff602084016100b9565b90509250929050565b611203806101176000396000f3fe608060405234801561001057600080fd5b50600436106101425760003560e01c80636d3d8ff3116100b8578063911d3e271161007c578063911d3e2714610385578063a71f48a414610398578063cb8c5a3a146103a1578063d0a9e9c7146103b4578063ded9b21e146103c7578063f2fde38b146103da57600080fd5b80636d3d8ff31461032d578063715018a61461034057806381bf8d3d1461034857806389ad556e146103515780638da5cb5b1461037457600080fd5b80631f8bc7901161010a5780631f8bc79014610287578063408a03d8146102c05780634439ca70146102d357806355e1172d146102e65780636588103b146102f957806367e297e31461030c57600080fd5b8063010ee184146101475780630ecbcdab14610177578063111cb2581461018c578063150b7a02146101ea57806319b7ad041461024b575b600080fd5b60015461015a906001600160a01b031681565b6040516001600160a01b0390911681526020015b60405180910390f35b61018a610185366004610fa3565b6103ed565b005b6101c561019a366004610fc5565b6006602052600090815260409020805460018201546002909201546001600160a01b03909116919083565b604080516001600160a01b03909416845260208401929092529082015260600161016e565b6102326101f8366004610ffa565b600083815260076020526040902080546001600160a01b0386166001600160a01b0319909116179055630a85bd0160e11b95945050505050565b6040516001600160e01b0319909116815260200161016e565b610272610259366004611095565b6008602052600090815260409020805460019091015482565b6040805192835260208301919091520161016e565b6101c5610295366004610fc5565b6007602052600090815260409020805460018201546002909201546001600160a01b03909116919083565b61018a6102ce366004611095565b6105a0565b61018a6102e1366004610fa3565b6105ec565b61018a6102f4366004610fc5565b610686565b60035461015a906001600160a01b031681565b61031f61031a366004610fc5565b6108d1565b60405190815260200161016e565b61031f61033b366004610fc5565b61096b565b61018a6109da565b61031f60045481565b61036461035f366004610fc5565b610a10565b604051901515815260200161016e565b6000546001600160a01b031661015a565b61018a6103933660046110c5565b610a72565b61031f60055481565b60025461015a906001600160a01b031681565b61018a6103c2366004610fa3565b610c2b565b61018a6103d5366004610fa3565b610ce3565b61018a6103e8366004611095565b610db7565b6002546001600160a01b031661044a5760405162461bcd60e51b815260206004820152601d60248201527f4e46545661756c743a206c656e64696e67207661756c7420756e73657400000060448201526064015b60405180910390fd5b80610454836108d1565b10156104b15760405162461bcd60e51b815260206004820152602660248201527f4e46545661756c743a20696e73756666696369656e7420626f72726f7720636160448201526570616369747960d01b6064820152608401610441565b600082815260076020526040902080546001600160a01b031633146105125760405162461bcd60e51b815260206004820152601760248201527627232a2b30bab63a1d103737ba1027232a1037bbb732b960491b6044820152606401610441565b61051b83610e52565b8181600101600082825461052f919061110b565b90915550506002548154604051630326ac0360e51b81526001600160a01b039182166004820152602481018590529116906364d5806090604401600060405180830381600087803b15801561058357600080fd5b505af1158015610597573d6000803e3d6000fd5b50505050505050565b6000546001600160a01b031633146105ca5760405162461bcd60e51b815260040161044190611123565b600280546001600160a01b0319166001600160a01b0392909216919091179055565b6000546001600160a01b031633146106165760405162461bcd60e51b815260040161044190611123565b81156106765760008211801561062c5750603282105b6106705760405162461bcd60e51b815260206004820152601560248201527427232a2b30bab63a1d1024a72b20a624a22fa62a2b60591b6044820152606401610441565b60048290555b80156106825760058190555b5050565b61068f81610a10565b156106dc5760405162461bcd60e51b815260206004820152601d60248201527f4e46545661756c743a20426f72726f77657220697320536f6c76656e740000006044820152606401610441565b60008181526006602052604090819020600254815460018301549351630d988a4d60e41b81526001600160a01b0391821660048201526024810194909452919291169063d988a4d090604401600060405180830381600087803b15801561074257600080fd5b505af1158015610756573d6000803e3d6000fd5b50506003548354604051632142170760e11b81523060048201526001600160a01b03918216602482015260448101879052911692506342842e0e9150606401600060405180830381600087803b1580156107af57600080fd5b505af11580156107c3573d6000803e3d6000fd5b505050600083815260076020908152604080832080546001600160a01b0316845260089092529091206001808301549085015492935090911061085457816001015483600101546108149190611158565b816000016000828254610827919061110b565b9091555061083690508461096b565b816001016000828254610849919061110b565b909155506108769050565b61085d8461096b565b816001016000828254610870919061110b565b90915550505b505060408051606081018252600080825260208083018281528385018381529683526007909152929020905181546001600160a01b0319166001600160a01b0390911617815590516001820155915160029092019190915550565b600081815260076020526040812060045460055483916064916108f4919061116f565b6108fe919061118e565b905080826001015411156109545760405162461bcd60e51b815260206004820152601c60248201527f4e46545661756c743a204e6f20626f72726f77206361706163697479000000006044820152606401610441565b60018201546109639082611158565b949350505050565b600081815260076020526040812060018101541580159061098f5750806002015442115b156109d15760008160020154426109a69190611158565b905060008260010154623567e0836109be919061116f565b6109c8919061116f565b95945050505050565b50600092915050565b6000546001600160a01b03163314610a045760405162461bcd60e51b815260040161044190611123565b610a0e6000610f53565b565b600081815260076020526040812081610a288461096b565b90506000610a37600a8361118e565b600c188360010154610a49919061110b565b90506002600554610a5a919061118e565b8111610a675760006109c8565b600195945050505050565b6002546001600160a01b0316610aca5760405162461bcd60e51b815260206004820152601d60248201527f4e46545661756c743a206c656e64696e67207661756c7420756e7365740000006044820152606401610441565b600082815260076020526040902080546001600160a01b03163314610b2b5760405162461bcd60e51b815260206004820152601760248201527627232a2b30bab63a1d103737ba1027232a1037bbb732b960491b6044820152606401610441565b610b3483610e52565b600254600182015460405163a05e223760e01b81526001600160a01b039092169163a05e223791610b6b9160040190815260200190565b600060405180830381600087803b158015610b8557600080fd5b505af1158015610b99573d6000803e3d6000fd5b505050508115610c1f576003548154604051632142170760e11b81523060048201526001600160a01b039182166024820152604481018690529116906342842e0e90606401600060405180830381600087803b158015610bf857600080fd5b505af1158015610c0c573d6000803e3d6000fd5b505082546001600160a01b031916835550505b60006001909101555050565b600082815260066020526040902060018101548211610c8c5760405162461bcd60e51b815260206004820152601960248201527f4e46545661756c743a204e6f74206869676865737420626964000000000000006044820152606401610441565b50604080516060810182523381526020808201938452428284019081526000958652600690915291909320925183546001600160a01b0319166001600160a01b039091161783559051600183015551600290910155565b600082815260066020526040902080546001600160a01b03163314610d565760405162461bcd60e51b815260206004820152602360248201527f4e46545661756c743a20556e617574686f726973656420626964206d6f64696660448201526234b2b960e91b6064820152608401610441565b620151808160020154610d69919061110b565b4211610c8c5760405162461bcd60e51b815260206004820152601f60248201527f4e46545661756c743a2043616e6e6f74206d6f646966792062696420796574006044820152606401610441565b6000546001600160a01b03163314610de15760405162461bcd60e51b815260040161044190611123565b6001600160a01b038116610e465760405162461bcd60e51b815260206004820152602660248201527f4f776e61626c653a206e6577206f776e657220697320746865207a65726f206160448201526564647265737360d01b6064820152608401610441565b610e4f81610f53565b50565b600081815260076020526040812090610e6a8361096b565b6001546040516323b872dd60e01b8152336004820152306024820152604481018390529192506001600160a01b0316906323b872dd906064016020604051808303816000875af1158015610ec2573d6000803e3d6000fd5b505050506040513d601f19601f82011682018060405250810190610ee691906111b0565b50600154604051630852cd8d60e31b8152600481018390526001600160a01b03909116906342966c6890602401600060405180830381600087803b158015610f2d57600080fd5b505af1158015610f41573d6000803e3d6000fd5b50505050428260020181905550505050565b600080546001600160a01b038381166001600160a01b0319831681178455604051919092169283917f8be0079c531659141344cd1fd0a4f28419497f9722a3daafe3b4186f6b6457e09190a35050565b60008060408385031215610fb657600080fd5b50508035926020909101359150565b600060208284031215610fd757600080fd5b5035919050565b80356001600160a01b0381168114610ff557600080fd5b919050565b60008060008060006080868803121561101257600080fd5b61101b86610fde565b945061102960208701610fde565b935060408601359250606086013567ffffffffffffffff8082111561104d57600080fd5b818801915088601f83011261106157600080fd5b81358181111561107057600080fd5b89602082850101111561108257600080fd5b9699959850939650602001949392505050565b6000602082840312156110a757600080fd5b6110b082610fde565b9392505050565b8015158114610e4f57600080fd5b600080604083850312156110d857600080fd5b8235915060208301356110ea816110b7565b809150509250929050565b634e487b7160e01b600052601160045260246000fd5b6000821982111561111e5761111e6110f5565b500190565b6020808252818101527f4f776e61626c653a2063616c6c6572206973206e6f7420746865206f776e6572604082015260600190565b60008282101561116a5761116a6110f5565b500390565b6000816000190483118215151615611189576111896110f5565b500290565b6000826111ab57634e487b7160e01b600052601260045260246000fd5b500490565b6000602082840312156111c257600080fd5b81516110b0816110b756fea26469706673582212208adfe86eadb0456ad2053c00f4c20331102c5c23ae4c72674ee759cd7748ad7664736f6c634300080a0033",
    "linkReferences": {}
  }
}