{
  "abi": [
    {
      "inputs": [
        {
          "internalType": "string",
          "name": "_name",
          "type": "string"
        },
        {
          "internalType": "string",
          "name": "_symbol",
          "type": "string"
        }
      ],
      "stateMutability": "nonpayable",
      "type": "constructor"
    },
    {
      "anonymous": false,
      "inputs": [
        {
          "indexed": true,
          "internalType": "address",
          "name": "owner",
          "type": "address"
        },
        {
          "indexed": true,
          "internalType": "address",
          "name": "spender",
          "type": "address"
        },
        {
          "indexed": true,
          "internalType": "uint256",
          "name": "id",
          "type": "uint256"
        }
      ],
      "name": "Approval",
      "type": "event"
    },
    {
      "anonymous": false,
      "inputs": [
        {
          "indexed": true,
          "internalType": "address",
          "name": "owner",
          "type": "address"
        },
        {
          "indexed": true,
          "internalType": "address",
          "name": "operator",
          "type": "address"
        },
        {
          "indexed": false,
          "internalType": "bool",
          "name": "approved",
          "type": "bool"
        }
      ],
      "name": "ApprovalForAll",
      "type": "event"
    },
    {
      "anonymous": false,
      "inputs": [
        {
          "indexed": true,
          "internalType": "address",
          "name": "from",
          "type": "address"
        },
        {
          "indexed": true,
          "internalType": "address",
          "name": "to",
          "type": "address"
        },
        {
          "indexed": true,
          "internalType": "uint256",
          "name": "id",
          "type": "uint256"
        }
      ],
      "name": "Transfer",
      "type": "event"
    },
    {
      "inputs": [
        {
          "internalType": "address",
          "name": "spender",
          "type": "address"
        },
        {
          "internalType": "uint256",
          "name": "id",
          "type": "uint256"
        }
      ],
      "name": "approve",
      "outputs": [],
      "stateMutability": "nonpayable",
      "type": "function"
    },
    {
      "inputs": [
        {
          "internalType": "address",
          "name": "",
          "type": "address"
        }
      ],
      "name": "balanceOf",
      "outputs": [
        {
          "internalType": "uint256",
          "name": "",
          "type": "uint256"
        }
      ],
      "stateMutability": "view",
      "type": "function"
    },
    {
      "inputs": [
        {
          "internalType": "uint256",
          "name": "",
          "type": "uint256"
        }
      ],
      "name": "getApproved",
      "outputs": [
        {
          "internalType": "address",
          "name": "",
          "type": "address"
        }
      ],
      "stateMutability": "view",
      "type": "function"
    },
    {
      "inputs": [
        {
          "internalType": "address",
          "name": "",
          "type": "address"
        },
        {
          "internalType": "address",
          "name": "",
          "type": "address"
        }
      ],
      "name": "isApprovedForAll",
      "outputs": [
        {
          "internalType": "bool",
          "name": "",
          "type": "bool"
        }
      ],
      "stateMutability": "view",
      "type": "function"
    },
    {
      "inputs": [
        {
          "internalType": "address",
          "name": "to",
          "type": "address"
        },
        {
          "internalType": "uint256",
          "name": "id",
          "type": "uint256"
        }
      ],
      "name": "mint",
      "outputs": [],
      "stateMutability": "nonpayable",
      "type": "function"
    },
    {
      "inputs": [
        {
          "internalType": "uint256",
          "name": "id",
          "type": "uint256"
        }
      ],
      "name": "mint",
      "outputs": [],
      "stateMutability": "nonpayable",
      "type": "function"
    },
    {
      "inputs": [],
      "name": "name",
      "outputs": [
        {
          "internalType": "string",
          "name": "",
          "type": "string"
        }
      ],
      "stateMutability": "view",
      "type": "function"
    },
    {
      "inputs": [
        {
          "internalType": "uint256",
          "name": "",
          "type": "uint256"
        }
      ],
      "name": "ownerOf",
      "outputs": [
        {
          "internalType": "address",
          "name": "",
          "type": "address"
        }
      ],
      "stateMutability": "view",
      "type": "function"
    },
    {
      "inputs": [
        {
          "internalType": "address",
          "name": "from",
          "type": "address"
        },
        {
          "internalType": "address",
          "name": "to",
          "type": "address"
        },
        {
          "internalType": "uint256",
          "name": "id",
          "type": "uint256"
        }
      ],
      "name": "safeTransferFrom",
      "outputs": [],
      "stateMutability": "nonpayable",
      "type": "function"
    },
    {
      "inputs": [
        {
          "internalType": "address",
          "name": "from",
          "type": "address"
        },
        {
          "internalType": "address",
          "name": "to",
          "type": "address"
        },
        {
          "internalType": "uint256",
          "name": "id",
          "type": "uint256"
        },
        {
          "internalType": "bytes",
          "name": "data",
          "type": "bytes"
        }
      ],
      "name": "safeTransferFrom",
      "outputs": [],
      "stateMutability": "nonpayable",
      "type": "function"
    },
    {
      "inputs": [
        {
          "internalType": "address",
          "name": "operator",
          "type": "address"
        },
        {
          "internalType": "bool",
          "name": "approved",
          "type": "bool"
        }
      ],
      "name": "setApprovalForAll",
      "outputs": [],
      "stateMutability": "nonpayable",
      "type": "function"
    },
    {
      "inputs": [
        {
          "internalType": "bytes4",
          "name": "interfaceId",
          "type": "bytes4"
        }
      ],
      "name": "supportsInterface",
      "outputs": [
        {
          "internalType": "bool",
          "name": "",
          "type": "bool"
        }
      ],
      "stateMutability": "pure",
      "type": "function"
    },
    {
      "inputs": [],
      "name": "symbol",
      "outputs": [
        {
          "internalType": "string",
          "name": "",
          "type": "string"
        }
      ],
      "stateMutability": "view",
      "type": "function"
    },
    {
      "inputs": [
        {
          "internalType": "uint256",
          "name": "id",
          "type": "uint256"
        }
      ],
      "name": "tokenURI",
      "outputs": [
        {
          "internalType": "string",
          "name": "",
          "type": "string"
        }
      ],
      "stateMutability": "view",
      "type": "function"
    },
    {
      "inputs": [
        {
          "internalType": "address",
          "name": "from",
          "type": "address"
        },
        {
          "internalType": "address",
          "name": "to",
          "type": "address"
        },
        {
          "internalType": "uint256",
          "name": "id",
          "type": "uint256"
        }
      ],
      "name": "transferFrom",
      "outputs": [],
      "stateMutability": "nonpayable",
      "type": "function"
    }
  ],
  "bytecode": {
    "object": "0x60806040523480156200001157600080fd5b50604051620010e2380380620010e28339810160408190526200003491620001e1565b8151829082906200004d9060009060208501906200006e565b508051620000639060019060208401906200006e565b505050505062000288565b8280546200007c906200024b565b90600052602060002090601f016020900481019282620000a05760008555620000eb565b82601f10620000bb57805160ff1916838001178555620000eb565b82800160010185558215620000eb579182015b82811115620000eb578251825591602001919060010190620000ce565b50620000f9929150620000fd565b5090565b5b80821115620000f95760008155600101620000fe565b634e487b7160e01b600052604160045260246000fd5b600082601f8301126200013c57600080fd5b81516001600160401b038082111562000159576200015962000114565b604051601f8301601f19908116603f0116810190828211818310171562000184576200018462000114565b81604052838152602092508683858801011115620001a157600080fd5b600091505b83821015620001c55785820183015181830184015290820190620001a6565b83821115620001d75760008385830101525b9695505050505050565b60008060408385031215620001f557600080fd5b82516001600160401b03808211156200020d57600080fd5b6200021b868387016200012a565b935060208501519150808211156200023257600080fd5b5062000241858286016200012a565b9150509250929050565b600181811c908216806200026057607f821691505b602082108114156200028257634e487b7160e01b600052602260045260246000fd5b50919050565b610e4a80620002986000396000f3fe608060405234801561001057600080fd5b50600436106100f55760003560e01c80636352211e11610097578063a22cb46511610066578063a22cb46514610238578063b88d4fde1461024b578063c87b56dd1461025e578063e985e9c51461027157600080fd5b80636352211e146101c657806370a08231146101ef57806395d89b411461021d578063a0712d681461022557600080fd5b8063095ea7b3116100d3578063095ea7b31461017857806323b872dd1461018d57806340c10f19146101a057806342842e0e146101b357600080fd5b806301ffc9a7146100fa57806306fdde0314610122578063081812fc14610137575b600080fd5b61010d610108366004610a3a565b61029f565b60405190151581526020015b60405180910390f35b61012a6102f1565b6040516101199190610ab6565b610160610145366004610ac9565b6004602052600090815260409020546001600160a01b031681565b6040516001600160a01b039091168152602001610119565b61018b610186366004610afe565b61037f565b005b61018b61019b366004610b28565b610466565b61018b6101ae366004610afe565b61062d565b61018b6101c1366004610b28565b61063b565b6101606101d4366004610ac9565b6003602052600090815260409020546001600160a01b031681565b61020f6101fd366004610b64565b60026020526000908152604090205481565b604051908152602001610119565b61012a610733565b61018b610233366004610ac9565b610740565b61018b610246366004610b7f565b61074d565b61018b610259366004610c2a565b6107b9565b61012a61026c366004610ac9565b61089e565b61010d61027f366004610cd5565b600560209081526000928352604080842090915290825290205460ff1681565b60006301ffc9a760e01b6001600160e01b0319831614806102d057506380ac58cd60e01b6001600160e01b03198316145b806102eb5750635b5e139f60e01b6001600160e01b03198316145b92915050565b600080546102fe90610d08565b80601f016020809104026020016040519081016040528092919081815260200182805461032a90610d08565b80156103775780601f1061034c57610100808354040283529160200191610377565b820191906000526020600020905b81548152906001019060200180831161035a57829003601f168201915b505050505081565b6000818152600360205260409020546001600160a01b0316338114806103c857506001600160a01b038116600090815260056020908152604080832033845290915290205460ff165b61040a5760405162461bcd60e51b815260206004820152600e60248201526d1393d517d055551213d49256915160921b60448201526064015b60405180910390fd5b60008281526004602052604080822080546001600160a01b0319166001600160a01b0387811691821790925591518593918516917f8c5be1e5ebec7d5bd14f71427d1e84f3dd0314c0f7b2291e5b200ac8c7c3b92591a4505050565b6000818152600360205260409020546001600160a01b038481169116146104bc5760405162461bcd60e51b815260206004820152600a60248201526957524f4e475f46524f4d60b01b6044820152606401610401565b6001600160a01b0382166105065760405162461bcd60e51b81526020600482015260116024820152701253959053125117d49150d25412515395607a1b6044820152606401610401565b336001600160a01b038416148061053357506000818152600460205260409020546001600160a01b031633145b8061056157506001600160a01b038316600090815260056020908152604080832033845290915290205460ff165b61059e5760405162461bcd60e51b815260206004820152600e60248201526d1393d517d055551213d49256915160921b6044820152606401610401565b6001600160a01b0380841660008181526002602090815260408083208054600019019055938616808352848320805460010190558583526003825284832080546001600160a01b03199081168317909155600490925284832080549092169091559251849392917fddf252ad1be2c89b69c2b068fc378daa952ba7f163c4a11628f55a4df523b3ef91a4505050565b6106378282610919565b5050565b610646838383610466565b6001600160a01b0382163b15806106ef5750604051630a85bd0160e11b8082523360048301526001600160a01b03858116602484015260448301849052608060648401526000608484015290919084169063150b7a029060a4016020604051808303816000875af11580156106bf573d6000803e3d6000fd5b505050506040513d601f19601f820116820180604052508101906106e39190610d43565b6001600160e01b031916145b61072e5760405162461bcd60e51b815260206004820152601060248201526f155394d0519157d49150d2541251539560821b6044820152606401610401565b505050565b600180546102fe90610d08565b61074a3382610919565b50565b3360008181526005602090815260408083206001600160a01b03871680855290835292819020805460ff191686151590811790915590519081529192917f17307eab39ab6107e8899845ad3d59bd9653f200f220920489ca2b5937696c31910160405180910390a35050565b6107c4848484610466565b6001600160a01b0383163b15806108595750604051630a85bd0160e11b808252906001600160a01b0385169063150b7a029061080a903390899088908890600401610d60565b6020604051808303816000875af1158015610829573d6000803e3d6000fd5b505050506040513d601f19601f8201168201806040525081019061084d9190610d43565b6001600160e01b031916145b6108985760405162461bcd60e51b815260206004820152601060248201526f155394d0519157d49150d2541251539560821b6044820152606401610401565b50505050565b604051631a03366160e11b81526004810182905260609073__$628c6422d85a0ef51ab4eb71858c51aac7$__906334066cc290602401600060405180830381865af41580156108f1573d6000803e3d6000fd5b505050506040513d6000823e601f3d908101601f191682016040526102eb9190810190610d9d565b6001600160a01b0382166109635760405162461bcd60e51b81526020600482015260116024820152701253959053125117d49150d25412515395607a1b6044820152606401610401565b6000818152600360205260409020546001600160a01b0316156109b95760405162461bcd60e51b815260206004820152600e60248201526d1053149150511657d3525395115160921b6044820152606401610401565b6001600160a01b038216600081815260026020908152604080832080546001019055848352600390915280822080546001600160a01b0319168417905551839291907fddf252ad1be2c89b69c2b068fc378daa952ba7f163c4a11628f55a4df523b3ef908290a45050565b6001600160e01b03198116811461074a57600080fd5b600060208284031215610a4c57600080fd5b8135610a5781610a24565b9392505050565b60005b83811015610a79578181015183820152602001610a61565b838111156108985750506000910152565b60008151808452610aa2816020860160208601610a5e565b601f01601f19169290920160200192915050565b602081526000610a576020830184610a8a565b600060208284031215610adb57600080fd5b5035919050565b80356001600160a01b0381168114610af957600080fd5b919050565b60008060408385031215610b1157600080fd5b610b1a83610ae2565b946020939093013593505050565b600080600060608486031215610b3d57600080fd5b610b4684610ae2565b9250610b5460208501610ae2565b9150604084013590509250925092565b600060208284031215610b7657600080fd5b610a5782610ae2565b60008060408385031215610b9257600080fd5b610b9b83610ae2565b915060208301358015158114610bb057600080fd5b809150509250929050565b634e487b7160e01b600052604160045260246000fd5b604051601f8201601f1916810167ffffffffffffffff81118282101715610bfa57610bfa610bbb565b604052919050565b600067ffffffffffffffff821115610c1c57610c1c610bbb565b50601f01601f191660200190565b60008060008060808587031215610c4057600080fd5b610c4985610ae2565b9350610c5760208601610ae2565b925060408501359150606085013567ffffffffffffffff811115610c7a57600080fd5b8501601f81018713610c8b57600080fd5b8035610c9e610c9982610c02565b610bd1565b818152886020838501011115610cb357600080fd5b8160208401602083013760006020838301015280935050505092959194509250565b60008060408385031215610ce857600080fd5b610cf183610ae2565b9150610cff60208401610ae2565b90509250929050565b600181811c90821680610d1c57607f821691505b60208210811415610d3d57634e487b7160e01b600052602260045260246000fd5b50919050565b600060208284031215610d5557600080fd5b8151610a5781610a24565b6001600160a01b0385811682528416602082015260408101839052608060608201819052600090610d9390830184610a8a565b9695505050505050565b600060208284031215610daf57600080fd5b815167ffffffffffffffff811115610dc657600080fd5b8201601f81018413610dd757600080fd5b8051610de5610c9982610c02565b818152856020838501011115610dfa57600080fd5b610e0b826020830160208601610a5e565b9594505050505056fea26469706673582212201c673db73403816a04611b056cd36f417c23daa47fd8c47492c2aa0f92be95b864736f6c634300080a0033",
    "linkReferences": {
      "/mnt/c/dev/NFTbacked/src/libLootSVG.sol": {
        "LootSVG": [
          {
            "start": 2895,
            "length": 20
          }
        ]
      }
    }
  }
}