{
  "abi": [
    {
      "inputs": [
        {
          "internalType": "address",
          "name": "_usdc",
          "type": "address"
        },
        {
          "internalType": "address",
          "name": "_lToken",
          "type": "address"
        },
        {
          "internalType": "address",
          "name": "_nftVault",
          "type": "address"
        }
      ],
      "stateMutability": "nonpayable",
      "type": "constructor"
    },
    {
      "anonymous": false,
      "inputs": [
        {
          "indexed": true,
          "internalType": "address",
          "name": "user",
          "type": "address"
        },
        {
          "indexed": false,
          "internalType": "uint256",
          "name": "amount",
          "type": "uint256"
        }
      ],
      "name": "Deposit",
      "type": "event"
    },
    {
      "anonymous": false,
      "inputs": [
        {
          "indexed": true,
          "internalType": "address",
          "name": "user",
          "type": "address"
        },
        {
          "indexed": false,
          "internalType": "uint256",
          "name": "amount",
          "type": "uint256"
        }
      ],
      "name": "Withdraw",
      "type": "event"
    },
    {
      "anonymous": false,
      "inputs": [
        {
          "indexed": false,
          "internalType": "string",
          "name": "output",
          "type": "string"
        }
      ],
      "name": "log",
      "type": "event"
    },
    {
      "anonymous": false,
      "inputs": [
        {
          "indexed": false,
          "internalType": "uint256",
          "name": "output",
          "type": "uint256"
        }
      ],
      "name": "log_uint",
      "type": "event"
    },
    {
      "inputs": [],
      "name": "accLTokenPerShare",
      "outputs": [
        {
          "internalType": "uint128",
          "name": "",
          "type": "uint128"
        }
      ],
      "stateMutability": "view",
      "type": "function"
    },
    {
      "inputs": [
        {
          "internalType": "uint256",
          "name": "amt",
          "type": "uint256"
        }
      ],
      "name": "deposit",
      "outputs": [],
      "stateMutability": "nonpayable",
      "type": "function"
    },
    {
      "inputs": [],
      "name": "lToken",
      "outputs": [
        {
          "internalType": "contract IERC20",
          "name": "",
          "type": "address"
        }
      ],
      "stateMutability": "view",
      "type": "function"
    },
    {
      "inputs": [
        {
          "internalType": "address",
          "name": "",
          "type": "address"
        }
      ],
      "name": "lendersInfo",
      "outputs": [
        {
          "internalType": "uint256",
          "name": "principal",
          "type": "uint256"
        },
        {
          "internalType": "uint256",
          "name": "rewardDebt",
          "type": "uint256"
        },
        {
          "internalType": "uint256",
          "name": "bidAmount",
          "type": "uint256"
        },
        {
          "internalType": "uint64",
          "name": "lastRewardTime",
          "type": "uint64"
        }
      ],
      "stateMutability": "view",
      "type": "function"
    },
    {
      "inputs": [],
      "name": "nftVault",
      "outputs": [
        {
          "internalType": "address",
          "name": "",
          "type": "address"
        }
      ],
      "stateMutability": "view",
      "type": "function"
    },
    {
      "inputs": [
        {
          "internalType": "address",
          "name": "_user",
          "type": "address"
        },
        {
          "internalType": "uint256",
          "name": "amt",
          "type": "uint256"
        }
      ],
      "name": "reducePrincipal",
      "outputs": [],
      "stateMutability": "nonpayable",
      "type": "function"
    },
    {
      "inputs": [
        {
          "internalType": "uint256",
          "name": "amt",
          "type": "uint256"
        }
      ],
      "name": "returnLendAmount",
      "outputs": [],
      "stateMutability": "nonpayable",
      "type": "function"
    },
    {
      "inputs": [],
      "name": "usdc",
      "outputs": [
        {
          "internalType": "contract IERC20",
          "name": "",
          "type": "address"
        }
      ],
      "stateMutability": "view",
      "type": "function"
    },
    {
      "inputs": [
        {
          "internalType": "address",
          "name": "_user",
          "type": "address"
        }
      ],
      "name": "userInterest",
      "outputs": [
        {
          "internalType": "uint256",
          "name": "pending",
          "type": "uint256"
        }
      ],
      "stateMutability": "view",
      "type": "function"
    },
    {
      "inputs": [],
      "name": "userLastUpdate",
      "outputs": [
        {
          "internalType": "uint256",
          "name": "lastUpdate",
          "type": "uint256"
        }
      ],
      "stateMutability": "view",
      "type": "function"
    },
    {
      "inputs": [
        {
          "internalType": "address",
          "name": "_user",
          "type": "address"
        }
      ],
      "name": "userLastUpdate",
      "outputs": [
        {
          "internalType": "uint256",
          "name": "lastUpdate",
          "type": "uint256"
        }
      ],
      "stateMutability": "view",
      "type": "function"
    },
    {
      "inputs": [
        {
          "internalType": "address",
          "name": "_user",
          "type": "address"
        }
      ],
      "name": "userPrincipal",
      "outputs": [
        {
          "internalType": "uint256",
          "name": "balance",
          "type": "uint256"
        }
      ],
      "stateMutability": "view",
      "type": "function"
    },
    {
      "inputs": [],
      "name": "userPrincipal",
      "outputs": [
        {
          "internalType": "uint256",
          "name": "balance",
          "type": "uint256"
        }
      ],
      "stateMutability": "view",
      "type": "function"
    },
    {
      "inputs": [
        {
          "internalType": "uint256",
          "name": "amt",
          "type": "uint256"
        }
      ],
      "name": "withdraw",
      "outputs": [],
      "stateMutability": "nonpayable",
      "type": "function"
    },
    {
      "inputs": [
        {
          "internalType": "address",
          "name": "user",
          "type": "address"
        },
        {
          "internalType": "uint256",
          "name": "amt",
          "type": "uint256"
        }
      ],
      "name": "withdrawLendAmount",
      "outputs": [],
      "stateMutability": "nonpayable",
      "type": "function"
    }
  ],
  "bytecode": {
    "object": "0x608060405234801561001057600080fd5b50604051610d17380380610d1783398101604081905261002f9161008d565b600080546001600160a01b039485166001600160a01b0319918216179091556001805493851693821693909317909255600280549190931691161790556100d0565b80516001600160a01b038116811461008857600080fd5b919050565b6000806000606084860312156100a257600080fd5b6100ab84610071565b92506100b960208501610071565b91506100c760408501610071565b90509250925092565b610c38806100df6000396000f3fe608060405234801561001057600080fd5b50600436106100f55760003560e01c80636a6abd8f11610097578063d30ea58611610066578063d30ea586146102aa578063d68076c3146102bf578063d988a4d0146102d2578063dbfb7d81146102e557600080fd5b80636a6abd8f146101f0578063a05e22371461021b578063b6b55f251461022e578063c78119791461024157600080fd5b80633cfb3f73116100d35780633cfb3f731461016b5780633e413bee146101a157806362dab626146101b457806364d58060146101dd57600080fd5b8063010ee184146100fa5780630f262de31461012a5780632e1a7d4d14610156575b600080fd5b60015461010d906001600160a01b031681565b6040516001600160a01b0390911681526020015b60405180910390f35b3360009081526004602052604090206003015467ffffffffffffffff165b604051908152602001610121565b610169610164366004610a89565b6102f8565b005b610148610179366004610abe565b6001600160a01b031660009081526004602052604090206003015467ffffffffffffffff1690565b60005461010d906001600160a01b031681565b6101486101c2366004610abe565b6001600160a01b031660009081526004602052604090205490565b6101696101eb366004610ae0565b610517565b600354610203906001600160801b031681565b6040516001600160801b039091168152602001610121565b610169610229366004610a89565b6105bd565b61016961023c366004610a89565b61066a565b61028061024f366004610abe565b60046020526000908152604090208054600182015460028301546003909301549192909167ffffffffffffffff1684565b6040805194855260208501939093529183015267ffffffffffffffff166060820152608001610121565b33600090815260046020526040902054610148565b6101486102cd366004610abe565b61085a565b6101696102e0366004610ae0565b61096f565b60025461010d906001600160a01b031681565b336000908152600460205260409020805482111561035d5760405162461bcd60e51b815260206004820152601d60248201527f4c656e64696e675661756c743a2057495448445241575f4641494c454400000060448201526064015b60405180910390fd5b60006103683361085a565b905061037342610a2e565b60038301805467ffffffffffffffff191667ffffffffffffffff92909216919091179055801561044e57808260010160008282546103b19190610b20565b90915550506040518181527f2cab9790510fd8bdfbd2115288db33fec66691d476efc5427cfd4c09693017559060200160405180910390a16001546040516340c10f1960e01b8152336004820152602481018390526001600160a01b03909116906340c10f1990604401600060405180830381600087803b15801561043557600080fd5b505af1158015610449573d6000803e3d6000fd5b505050505b828260000160008282546104629190610b38565b909155505060005460405163a9059cbb60e01b8152336004820152602481018590526001600160a01b039091169063a9059cbb906044016020604051808303816000875af11580156104b8573d6000803e3d6000fd5b505050506040513d601f19601f820116820180604052508101906104dc9190610b4f565b5060405183815233907f884edad9ce6fa2440d8a54cc123490eb96d2768479d49ff9c7366125a94243649060200160405180910390a2505050565b6002546001600160a01b031633146105415760405162461bcd60e51b815260040161035490610b71565b60005460405163a9059cbb60e01b81526001600160a01b038481166004830152602482018490529091169063a9059cbb906044016020604051808303816000875af1158015610594573d6000803e3d6000fd5b505050506040513d601f19601f820116820180604052508101906105b89190610b4f565b505050565b6002546001600160a01b031633146105e75760405162461bcd60e51b815260040161035490610b71565b6000546002546040516323b872dd60e01b81526001600160a01b039182166004820152306024820152604481018490529116906323b872dd906064016020604051808303816000875af1158015610642573d6000803e3d6000fd5b505050506040513d601f19601f820116820180604052508101906106669190610b4f565b5050565b33600090815260046020526040902080541515806106945750600381015467ffffffffffffffff16155b1561078c5760006106a43361085a565b90506106af42610a2e565b60038301805467ffffffffffffffff191667ffffffffffffffff92909216919091179055801561078a57808260010160008282546106ed9190610b20565b90915550506040518181527f2cab9790510fd8bdfbd2115288db33fec66691d476efc5427cfd4c09693017559060200160405180910390a16001546040516340c10f1960e01b8152336004820152602481018390526001600160a01b03909116906340c10f1990604401600060405180830381600087803b15801561077157600080fd5b505af1158015610785573d6000803e3d6000fd5b505050505b505b6000546040516323b872dd60e01b8152336004820152306024820152604481018490526001600160a01b03909116906323b872dd906064016020604051808303816000875af11580156107e3573d6000803e3d6000fd5b505050506040513d601f19601f820116820180604052508101906108079190610b4f565b508181600001600082825461081c9190610b20565b909155505060405182815233907fe1fffcc4923d04b559f4d29a8bfc6cda04eb5b0d3c460751c2402c5c5cc9109c9060200160405180910390a25050565b6001600160a01b038181166000908152600460208190526040808320835491516370a0823160e01b81523093810193909352929384929116906370a0823190602401602060405180830381865afa1580156108b9573d6000803e3d6000fd5b505050506040513d601f19601f820116820180604052508101906108dd9190610ba8565b600383015490915060009067ffffffffffffffff16421180156108ff57508115155b156109335760038301546000906109209067ffffffffffffffff1642610b38565b905061092f622625a082610bc1565b9150505b6109668360010154600183866000015461094d9190610bc1565b6109579190610be0565b6109619190610b38565b610a49565b95945050505050565b6002546001600160a01b031633146109995760405162461bcd60e51b815260040161035490610b71565b6001600160a01b03821660009081526004602052604090208054821115610a105760405162461bcd60e51b815260206004820152602560248201527f4c656e64696e675661756c743a205052494e434950414c5f5245445543455f46604482015264105253115160da1b6064820152608401610354565b81816000016000828254610a249190610b38565b9091555050505050565b600067ffffffffffffffff821115610a4557600080fd5b5090565b600080821215610a455760405162461bcd60e51b815260206004820152600b60248201526a0496e7465676572203c20360ac1b6044820152606401610354565b600060208284031215610a9b57600080fd5b5035919050565b80356001600160a01b0381168114610ab957600080fd5b919050565b600060208284031215610ad057600080fd5b610ad982610aa2565b9392505050565b60008060408385031215610af357600080fd5b610afc83610aa2565b946020939093013593505050565b634e487b7160e01b600052601160045260246000fd5b60008219821115610b3357610b33610b0a565b500190565b600082821015610b4a57610b4a610b0a565b500390565b600060208284031215610b6157600080fd5b81518015158114610ad957600080fd5b6020808252601b908201527f4c656e64696e675661756c743a206e6f74204e4654207661756c740000000000604082015260600190565b600060208284031215610bba57600080fd5b5051919050565b6000816000190483118215151615610bdb57610bdb610b0a565b500290565b600082610bfd57634e487b7160e01b600052601260045260246000fd5b50049056fea2646970667358221220169ab12b3414571ad46a0fca3da8355ea4a2014b484b6bef597c5575d45a6d3564736f6c634300080a0033",
    "linkReferences": {}
  }
}