{
  "abi": [
    {
      "inputs": [
        {
          "internalType": "address",
          "name": "_usdc",
          "type": "address"
        },
        {
          "internalType": "address",
          "name": "_lToken",
          "type": "address"
        },
        {
          "internalType": "address",
          "name": "_nftCollection",
          "type": "address"
        }
      ],
      "stateMutability": "nonpayable",
      "type": "constructor"
    },
    {
      "anonymous": false,
      "inputs": [
        {
          "indexed": true,
          "internalType": "address",
          "name": "buyer",
          "type": "address"
        },
        {
          "indexed": false,
          "internalType": "uint256",
          "name": "id",
          "type": "uint256"
        },
        {
          "indexed": false,
          "internalType": "uint256",
          "name": "amount",
          "type": "uint256"
        }
      ],
      "name": "Auctioned",
      "type": "event"
    },
    {
      "anonymous": false,
      "inputs": [
        {
          "indexed": true,
          "internalType": "address",
          "name": "user",
          "type": "address"
        },
        {
          "indexed": false,
          "internalType": "uint256",
          "name": "idCollateral",
          "type": "uint256"
        },
        {
          "indexed": false,
          "internalType": "uint256",
          "name": "borrowedAmount",
          "type": "uint256"
        }
      ],
      "name": "Borrowed",
      "type": "event"
    },
    {
      "anonymous": false,
      "inputs": [
        {
          "indexed": true,
          "internalType": "address",
          "name": "user",
          "type": "address"
        },
        {
          "indexed": false,
          "internalType": "uint256",
          "name": "idCollateral",
          "type": "uint256"
        },
        {
          "indexed": false,
          "internalType": "uint256",
          "name": "borrowedAmount",
          "type": "uint256"
        },
        {
          "indexed": false,
          "internalType": "uint256",
          "name": "shortFall",
          "type": "uint256"
        }
      ],
      "name": "Defaulted",
      "type": "event"
    },
    {
      "anonymous": false,
      "inputs": [
        {
          "indexed": true,
          "internalType": "address",
          "name": "user",
          "type": "address"
        },
        {
          "indexed": false,
          "internalType": "uint256",
          "name": "amount",
          "type": "uint256"
        }
      ],
      "name": "Deposit",
      "type": "event"
    },
    {
      "anonymous": false,
      "inputs": [
        {
          "indexed": true,
          "internalType": "address",
          "name": "previousOwner",
          "type": "address"
        },
        {
          "indexed": true,
          "internalType": "address",
          "name": "newOwner",
          "type": "address"
        }
      ],
      "name": "OwnershipTransferred",
      "type": "event"
    },
    {
      "anonymous": false,
      "inputs": [
        {
          "indexed": true,
          "internalType": "address",
          "name": "user",
          "type": "address"
        },
        {
          "indexed": false,
          "internalType": "uint256",
          "name": "idCollateral",
          "type": "uint256"
        },
        {
          "indexed": false,
          "internalType": "uint256",
          "name": "borrowedAmount",
          "type": "uint256"
        }
      ],
      "name": "Repayed",
      "type": "event"
    },
    {
      "anonymous": false,
      "inputs": [
        {
          "indexed": true,
          "internalType": "address",
          "name": "user",
          "type": "address"
        },
        {
          "indexed": false,
          "internalType": "uint256",
          "name": "amount",
          "type": "uint256"
        }
      ],
      "name": "Withdraw",
      "type": "event"
    },
    {
      "anonymous": false,
      "inputs": [
        {
          "indexed": false,
          "internalType": "string",
          "name": "output",
          "type": "string"
        }
      ],
      "name": "log",
      "type": "event"
    },
    {
      "anonymous": false,
      "inputs": [
        {
          "indexed": false,
          "internalType": "address",
          "name": "output",
          "type": "address"
        }
      ],
      "name": "log_address",
      "type": "event"
    },
    {
      "anonymous": false,
      "inputs": [
        {
          "indexed": false,
          "internalType": "bytes",
          "name": "output",
          "type": "bytes"
        }
      ],
      "name": "log_bytes",
      "type": "event"
    },
    {
      "anonymous": false,
      "inputs": [
        {
          "indexed": false,
          "internalType": "uint256",
          "name": "output",
          "type": "uint256"
        }
      ],
      "name": "log_uint",
      "type": "event"
    },
    {
      "inputs": [],
      "name": "FLOOR_PRICE",
      "outputs": [
        {
          "internalType": "uint256",
          "name": "",
          "type": "uint256"
        }
      ],
      "stateMutability": "view",
      "type": "function"
    },
    {
      "inputs": [],
      "name": "MAX_LTV",
      "outputs": [
        {
          "internalType": "uint256",
          "name": "",
          "type": "uint256"
        }
      ],
      "stateMutability": "view",
      "type": "function"
    },
    {
      "inputs": [
        {
          "internalType": "uint256",
          "name": "amt",
          "type": "uint256"
        }
      ],
      "name": "borrowerReturnLoan",
      "outputs": [],
      "stateMutability": "nonpayable",
      "type": "function"
    },
    {
      "inputs": [
        {
          "internalType": "uint256",
          "name": "id",
          "type": "uint256"
        },
        {
          "internalType": "uint256",
          "name": "amt",
          "type": "uint256"
        }
      ],
      "name": "borrowerStartBorrowing",
      "outputs": [],
      "stateMutability": "nonpayable",
      "type": "function"
    },
    {
      "inputs": [
        {
          "internalType": "uint256",
          "name": "id",
          "type": "uint256"
        }
      ],
      "name": "declareDefault",
      "outputs": [],
      "stateMutability": "nonpayable",
      "type": "function"
    },
    {
      "inputs": [
        {
          "internalType": "address",
          "name": "",
          "type": "address"
        }
      ],
      "name": "defaultInfo",
      "outputs": [
        {
          "internalType": "uint256",
          "name": "excessUSDCDue",
          "type": "uint256"
        },
        {
          "internalType": "uint256",
          "name": "outstandingLTokens",
          "type": "uint256"
        }
      ],
      "stateMutability": "view",
      "type": "function"
    },
    {
      "inputs": [
        {
          "internalType": "uint256",
          "name": "id",
          "type": "uint256"
        },
        {
          "internalType": "uint256",
          "name": "_bidPrice",
          "type": "uint256"
        }
      ],
      "name": "enterNewBid",
      "outputs": [],
      "stateMutability": "nonpayable",
      "type": "function"
    },
    {
      "inputs": [
        {
          "internalType": "uint256",
          "name": "",
          "type": "uint256"
        }
      ],
      "name": "highestBids",
      "outputs": [
        {
          "internalType": "address",
          "name": "user",
          "type": "address"
        },
        {
          "internalType": "uint256",
          "name": "bidPrice",
          "type": "uint256"
        },
        {
          "internalType": "uint256",
          "name": "bidAccepted",
          "type": "uint256"
        }
      ],
      "stateMutability": "view",
      "type": "function"
    },
    {
      "inputs": [
        {
          "internalType": "uint256",
          "name": "id",
          "type": "uint256"
        }
      ],
      "name": "interestDue",
      "outputs": [
        {
          "internalType": "uint256",
          "name": "",
          "type": "uint256"
        }
      ],
      "stateMutability": "view",
      "type": "function"
    },
    {
      "inputs": [
        {
          "internalType": "uint256",
          "name": "id",
          "type": "uint256"
        }
      ],
      "name": "isSolvent",
      "outputs": [
        {
          "internalType": "bool",
          "name": "",
          "type": "bool"
        }
      ],
      "stateMutability": "view",
      "type": "function"
    },
    {
      "inputs": [],
      "name": "lToken",
      "outputs": [
        {
          "internalType": "contract IERC20",
          "name": "",
          "type": "address"
        }
      ],
      "stateMutability": "view",
      "type": "function"
    },
    {
      "inputs": [
        {
          "internalType": "uint256",
          "name": "amt",
          "type": "uint256"
        }
      ],
      "name": "lenderDeposit",
      "outputs": [],
      "stateMutability": "nonpayable",
      "type": "function"
    },
    {
      "inputs": [
        {
          "internalType": "address",
          "name": "_user",
          "type": "address"
        }
      ],
      "name": "lenderInterest",
      "outputs": [
        {
          "internalType": "uint256",
          "name": "pending",
          "type": "uint256"
        }
      ],
      "stateMutability": "view",
      "type": "function"
    },
    {
      "inputs": [
        {
          "internalType": "address",
          "name": "_user",
          "type": "address"
        }
      ],
      "name": "lenderLastUpdate",
      "outputs": [
        {
          "internalType": "uint256",
          "name": "lastUpdate",
          "type": "uint256"
        }
      ],
      "stateMutability": "view",
      "type": "function"
    },
    {
      "inputs": [],
      "name": "lenderLastUpdate",
      "outputs": [
        {
          "internalType": "uint256",
          "name": "lastUpdate",
          "type": "uint256"
        }
      ],
      "stateMutability": "view",
      "type": "function"
    },
    {
      "inputs": [
        {
          "internalType": "address",
          "name": "_user",
          "type": "address"
        }
      ],
      "name": "lenderPrincipal",
      "outputs": [
        {
          "internalType": "uint256",
          "name": "balance",
          "type": "uint256"
        }
      ],
      "stateMutability": "view",
      "type": "function"
    },
    {
      "inputs": [],
      "name": "lenderPrincipal",
      "outputs": [
        {
          "internalType": "uint256",
          "name": "balance",
          "type": "uint256"
        }
      ],
      "stateMutability": "view",
      "type": "function"
    },
    {
      "inputs": [
        {
          "internalType": "uint256",
          "name": "amt",
          "type": "uint256"
        }
      ],
      "name": "lenderWithdraw",
      "outputs": [],
      "stateMutability": "nonpayable",
      "type": "function"
    },
    {
      "inputs": [
        {
          "internalType": "address",
          "name": "",
          "type": "address"
        }
      ],
      "name": "lendersInfo",
      "outputs": [
        {
          "internalType": "uint256",
          "name": "principal",
          "type": "uint256"
        },
        {
          "internalType": "uint256",
          "name": "rewardDebt",
          "type": "uint256"
        },
        {
          "internalType": "uint256",
          "name": "bidAmount",
          "type": "uint256"
        },
        {
          "internalType": "uint64",
          "name": "lastRewardTime",
          "type": "uint64"
        }
      ],
      "stateMutability": "view",
      "type": "function"
    },
    {
      "inputs": [
        {
          "internalType": "uint256",
          "name": "id",
          "type": "uint256"
        },
        {
          "internalType": "uint256",
          "name": "newBidPrice",
          "type": "uint256"
        }
      ],
      "name": "modifyBid",
      "outputs": [],
      "stateMutability": "nonpayable",
      "type": "function"
    },
    {
      "inputs": [],
      "name": "nftCollection",
      "outputs": [
        {
          "internalType": "contract IERC721",
          "name": "",
          "type": "address"
        }
      ],
      "stateMutability": "view",
      "type": "function"
    },
    {
      "inputs": [
        {
          "internalType": "uint256",
          "name": "",
          "type": "uint256"
        }
      ],
      "name": "nftInfo",
      "outputs": [
        {
          "internalType": "address",
          "name": "depositor",
          "type": "address"
        },
        {
          "internalType": "uint256",
          "name": "borrowAmt",
          "type": "uint256"
        },
        {
          "internalType": "uint256",
          "name": "lastPaid",
          "type": "uint256"
        }
      ],
      "stateMutability": "view",
      "type": "function"
    },
    {
      "inputs": [
        {
          "internalType": "uint256",
          "name": "id",
          "type": "uint256"
        }
      ],
      "name": "nftInventory",
      "outputs": [
        {
          "internalType": "address",
          "name": "depositor",
          "type": "address"
        },
        {
          "internalType": "uint256",
          "name": "borrowed",
          "type": "uint256"
        },
        {
          "internalType": "uint256",
          "name": "lastPayment",
          "type": "uint256"
        }
      ],
      "stateMutability": "view",
      "type": "function"
    },
    {
      "inputs": [
        {
          "internalType": "address",
          "name": "_operator",
          "type": "address"
        },
        {
          "internalType": "address",
          "name": "_from",
          "type": "address"
        },
        {
          "internalType": "uint256",
          "name": "_id",
          "type": "uint256"
        },
        {
          "internalType": "bytes",
          "name": "_data",
          "type": "bytes"
        }
      ],
      "name": "onERC721Received",
      "outputs": [
        {
          "internalType": "bytes4",
          "name": "",
          "type": "bytes4"
        }
      ],
      "stateMutability": "nonpayable",
      "type": "function"
    },
    {
      "inputs": [],
      "name": "owner",
      "outputs": [
        {
          "internalType": "address",
          "name": "",
          "type": "address"
        }
      ],
      "stateMutability": "view",
      "type": "function"
    },
    {
      "inputs": [
        {
          "internalType": "uint256",
          "name": "id",
          "type": "uint256"
        }
      ],
      "name": "payLTokenDebt",
      "outputs": [],
      "stateMutability": "nonpayable",
      "type": "function"
    },
    {
      "inputs": [],
      "name": "renounceOwnership",
      "outputs": [],
      "stateMutability": "nonpayable",
      "type": "function"
    },
    {
      "inputs": [
        {
          "internalType": "uint256",
          "name": "id",
          "type": "uint256"
        },
        {
          "internalType": "bool",
          "name": "withdrawNFT",
          "type": "bool"
        }
      ],
      "name": "repayPrincipal",
      "outputs": [],
      "stateMutability": "nonpayable",
      "type": "function"
    },
    {
      "inputs": [
        {
          "internalType": "uint256",
          "name": "_newLtv",
          "type": "uint256"
        },
        {
          "internalType": "uint256",
          "name": "_floor",
          "type": "uint256"
        }
      ],
      "name": "setBorrowParameters",
      "outputs": [],
      "stateMutability": "nonpayable",
      "type": "function"
    },
    {
      "inputs": [],
      "name": "totalUSDCinLoans",
      "outputs": [
        {
          "internalType": "uint256",
          "name": "",
          "type": "uint256"
        }
      ],
      "stateMutability": "view",
      "type": "function"
    },
    {
      "inputs": [
        {
          "internalType": "address",
          "name": "newOwner",
          "type": "address"
        }
      ],
      "name": "transferOwnership",
      "outputs": [],
      "stateMutability": "nonpayable",
      "type": "function"
    },
    {
      "inputs": [],
      "name": "usdc",
      "outputs": [
        {
          "internalType": "contract IERC20",
          "name": "",
          "type": "address"
        }
      ],
      "stateMutability": "view",
      "type": "function"
    },
    {
      "inputs": [
        {
          "internalType": "uint256",
          "name": "id",
          "type": "uint256"
        }
      ],
      "name": "viewBorrowCapacity",
      "outputs": [
        {
          "internalType": "uint256",
          "name": "",
          "type": "uint256"
        }
      ],
      "stateMutability": "view",
      "type": "function"
    }
  ],
  "bytecode": {
    "object": "0x60806040523480156200001157600080fd5b5060405162001ed838038062001ed88339810160408190526200003491620000ef565b6200003f3362000082565b600180546001600160a01b039485166001600160a01b03199182161790915560028054938516938216939093179092556003805491909316911617905562000139565b600080546001600160a01b038381166001600160a01b0319831681178455604051919092169283917f8be0079c531659141344cd1fd0a4f28419497f9722a3daafe3b4186f6b6457e09190a35050565b80516001600160a01b0381168114620000ea57600080fd5b919050565b6000806000606084860312156200010557600080fd5b6200011084620000d2565b92506200012060208501620000d2565b91506200013060408501620000d2565b90509250925092565b611d8f80620001496000396000f3fe608060405234801561001057600080fd5b50600436106101fb5760003560e01c806381bf8d3d1161011a578063b7f05c17116100ad578063ded9b21e1161007c578063ded9b21e1461059b578063e523bae1146105ae578063f0dd1c78146105c1578063f1b81a26146105d6578063f2fde38b146105e957600080fd5b8063b7f05c17146104f9578063bc2582c11461050c578063c78119791461051f578063d0a9e9c71461058857600080fd5b8063911d3e27116100e9578063911d3e27146104925780639aaf4a31146104a5578063a71f48a4146104ce578063b6746ee6146104d757600080fd5b806381bf8d3d1461041e57806382b65bef1461042757806389ad556e1461045e5780638da5cb5b1461048157600080fd5b80634439ca701161019257806367e297e31161016157806367e297e3146103e75780636d3d8ff3146103fa578063715018a61461040d5780637d4842a91461041557600080fd5b80634439ca701461039b5780634ff70cce146103ae57806355e1172d146103c15780636588103b146103d457600080fd5b80631f8bc790116101ce5780631f8bc790146102f657806322aff7611461032f5780633e413bee1461034457806342aedfa51461035757600080fd5b8063010ee18414610200578063111cb25814610230578063150b7a021461028e57806319b7ad04146102ba575b600080fd5b600254610213906001600160a01b031681565b6040516001600160a01b0390911681526020015b60405180910390f35b61026961023e366004611ac3565b6007602052600090815260409020805460018201546002909201546001600160a01b03909116919083565b604080516001600160a01b039094168452602084019290925290820152606001610227565b6102a161029c366004611af8565b6105fc565b6040516001600160e01b03199091168152602001610227565b6102e16102c8366004611b93565b600a602052600090815260409020805460019091015482565b60408051928352602083019190915201610227565b610269610304366004611ac3565b6008602052600090815260409020805460018201546002909201546001600160a01b03909116919083565b61034261033d366004611ac3565b6106d8565b005b600154610213906001600160a01b031681565b61038d610365366004611b93565b6001600160a01b031660009081526006602052604090206003015467ffffffffffffffff1690565b604051908152602001610227565b6103426103a9366004611bb5565b610753565b6103426103bc366004611ac3565b6107e9565b6103426103cf366004611ac3565b6109a2565b600354610213906001600160a01b031681565b61038d6103f5366004611ac3565b610c76565b61038d610408366004611ac3565b610d10565b610342610d94565b61038d60095481565b61038d60045481565b610269610435366004611ac3565b6000908152600860205260409020805460018201546002909201546001600160a01b0390911692565b61047161046c366004611ac3565b610dca565b6040519015158152602001610227565b6000546001600160a01b0316610213565b6103426104a0366004611be5565b610e1f565b61038d6104b3366004611b93565b6001600160a01b031660009081526006602052604090205490565b61038d60055481565b3360009081526006602052604090206003015467ffffffffffffffff1661038d565b610342610507366004611bb5565b610f21565b61034261051a366004611ac3565b611025565b61055e61052d366004611b93565b60066020526000908152604090208054600182015460028301546003909301549192909167ffffffffffffffff1684565b6040805194855260208501939093529183015267ffffffffffffffff166060820152608001610227565b610342610596366004611bb5565b61121b565b6103426105a9366004611bb5565b61147d565b61038d6105bc366004611b93565b61166b565b3360009081526006602052604090205461038d565b6103426105e4366004611ac3565b611774565b6103426105f7366004611b93565b611871565b6000846001600160a01b0316866001600160a01b0316146106645760405162461bcd60e51b815260206004820152601b60248201527f5661756c743a206f70657261746f72206973206e6f742066726f6d000000000060448201526064015b60405180910390fd5b7f23b62ad0584d24a75f0bf3560391ef5659ec6db1269c56e11aa241d637f19b208383604051610695929190611c15565b60405180910390a150600083815260086020526040902080546001600160a01b0386166001600160a01b0319909116179055630a85bd0160e11b95945050505050565b6001546040516323b872dd60e01b81526001600160a01b03909116906323b872dd9061070c90339030908690600401611c44565b6020604051808303816000875af115801561072b573d6000803e3d6000fd5b505050506040513d601f19601f8201168201806040525081019061074f9190611c68565b5050565b6000546001600160a01b0316331461077d5760405162461bcd60e51b815260040161065b90611c85565b81156107dd576000821180156107935750603282105b6107d75760405162461bcd60e51b815260206004820152601560248201527427232a2b30bab63a1d1024a72b20a624a22fa62a2b60591b604482015260640161065b565b60048290555b801561074f5760055550565b33600090815260066020526040902080541515806108135750600381015467ffffffffffffffff16155b156108d85760006108233361166b565b905061082e4261190c565b60038301805467ffffffffffffffff191667ffffffffffffffff9290921691909117905580156108d6578082600101600082825461086c9190611cd0565b90915550506002546040516340c10f1960e01b8152336004820152602481018390526001600160a01b03909116906340c10f1990604401600060405180830381600087803b1580156108bd57600080fd5b505af11580156108d1573d6000803e3d6000fd5b505050505b505b6001546040516323b872dd60e01b81526001600160a01b03909116906323b872dd9061090c90339030908790600401611c44565b6020604051808303816000875af115801561092b573d6000803e3d6000fd5b505050506040513d601f19601f8201168201806040525081019061094f9190611c68565b50818160000160008282546109649190611cd0565b909155505060405182815233907fe1fffcc4923d04b559f4d29a8bfc6cda04eb5b0d3c460751c2402c5c5cc9109c9060200160405180910390a25050565b6109ab81610dca565b156109f85760405162461bcd60e51b815260206004820152601d60248201527f4e46545661756c743a20426f72726f77657220697320536f6c76656e74000000604482015260640161065b565b60008181526007602090815260408083206008835281842080546001600160a01b03168552600a90935292206001808301549084015410610a875781600101548360010154610a479190611ce8565b816000016000828254610a5a9190611cd0565b90915550610a69905084610d10565b816001016000828254610a7c9190611cd0565b90915550610aa99050565b610a9084610d10565b816001016000828254610aa39190611cd0565b90915550505b600183015415610bd15782546001840154610acd916001600160a01b031690611927565b6003548354604051632142170760e11b81526001600160a01b03928316926342842e0e92610b05923092909116908990600401611c44565b600060405180830381600087803b158015610b1f57600080fd5b505af1158015610b33573d6000803e3d6000fd5b50506040805160608082018352600080835260208084018281528486018381528c845260088352868420955186546001600160a01b03199081166001600160a01b0392831617885592516001808901919091559151600297880155875195860188528486528584018581528689018681528f87526007909552979094209451855490921691909316178355935190820155915191015550610c709050565b60408051606080820183523080835260008881526008602081815286832060018082018054848a01908152898b018781528f8852600786528b88209a518b546001600160a01b039182166001600160a01b0319918216178d559251948c01949094555160029a8b01558a519889018b52968852878401868152998801868152958e90529390925294518554911693169290921783559351905591519101555b50505050565b60008181526008602052604081206004546005548391606491610c999190611cff565b610ca39190611d1e565b90508082600101541115610cf95760405162461bcd60e51b815260206004820152601c60248201527f4e46545661756c743a204e6f20626f72726f7720636170616369747900000000604482015260640161065b565b6001820154610d089082611ce8565b949350505050565b6000818152600860205260408120600181015415801590610d345750806002015442115b15610d8b576000816002015442610d4b9190611ce8565b90506000610d5e6305f5e1006064611cff565b6001840154610d6e601e85611cff565b610d789190611cff565b610d829190611d1e565b95945050505050565b50600092915050565b6000546001600160a01b03163314610dbe5760405162461bcd60e51b815260040161065b90611c85565b610dc860006119bc565b565b600081815260086020526040812081610de284610d10565b90506000818360010154610df69190611cd0565b90506003600554610e079190611d1e565b8111610e14576001610d82565b600095945050505050565b600082815260086020526040902080546001600160a01b03163314610e805760405162461bcd60e51b815260206004820152601760248201527627232a2b30bab63a1d103737ba1027232a1037bbb732b960491b604482015260640161065b565b610e8983611774565b610e9681600101546106d8565b8115610f15576003548154604051632142170760e11b81526001600160a01b03928316926342842e0e92610ed4923092909116908890600401611c44565b600060405180830381600087803b158015610eee57600080fd5b505af1158015610f02573d6000803e3d6000fd5b505082546001600160a01b031916835550505b60006001909101555050565b80610f2b83610c76565b1015610f885760405162461bcd60e51b815260206004820152602660248201527f4e46545661756c743a20696e73756666696369656e7420626f72726f7720636160448201526570616369747960d01b606482015260840161065b565b600082815260086020526040902080546001600160a01b03163314610fe95760405162461bcd60e51b815260206004820152601760248201527627232a2b30bab63a1d103737ba1027232a1037bbb732b960491b604482015260640161065b565b610ff283611774565b818160010160008282546110069190611cd0565b90915550508054611020906001600160a01b031683611a0c565b505050565b33600090815260066020526040902060028101548154839161104691611ce8565b10156110945760405162461bcd60e51b815260206004820152601d60248201527f4c656e64696e675661756c743a2057495448445241575f4641494c4544000000604482015260640161065b565b600061109f3361166b565b90506110aa4261190c565b60038301805467ffffffffffffffff191667ffffffffffffffff92909216919091179055801561115257808260010160008282546110e89190611cd0565b90915550506002546040516340c10f1960e01b8152336004820152602481018390526001600160a01b03909116906340c10f1990604401600060405180830381600087803b15801561113957600080fd5b505af115801561114d573d6000803e3d6000fd5b505050505b828260000160008282546111669190611ce8565b909155505060015460405163a9059cbb60e01b8152336004820152602481018590526001600160a01b039091169063a9059cbb906044016020604051808303816000875af11580156111bc573d6000803e3d6000fd5b505050506040513d601f19601f820116820180604052508101906111e09190611c68565b5060405183815233907f884edad9ce6fa2440d8a54cc123490eb96d2768479d49ff9c7366125a94243649060200160405180910390a2505050565b60008281526007602052604090206001810154821161127c5760405162461bcd60e51b815260206004820152601960248201527f4e46545661756c743a204e6f7420686967686573742062696400000000000000604482015260640161065b565b33600090815260066020526040902060028101548154849161129d91611ce8565b10156112eb5760405162461bcd60e51b815260206004820152601e60248201527f696e73756666696369656e742066726565206269642063617061636974790000604482015260640161065b565b828160020160008282546112ff9190611cd0565b909155505081546001600160a01b0316301415611425576113203384611927565b600354604051632142170760e11b81526001600160a01b03909116906342842e0e9061135490309033908990600401611c44565b600060405180830381600087803b15801561136e57600080fd5b505af1158015611382573d6000803e3d6000fd5b50506040805160608082018352600080835260208084018281528486018381528c845260088352868420955186546001600160a01b039182166001600160a01b031991821617885592516001808901919091559151600297880155875195860188528486528584018581528689018681529e8652600790945296909320935184549616951694909417825592519281019290925596519601959095555050505050565b5050604080516060810182523381526020808201938452428284019081526000958652600790915291909320925183546001600160a01b0319166001600160a01b039091161783559051600183015551600290910155565b600082815260076020526040902080546001600160a01b031633146114f05760405162461bcd60e51b815260206004820152602360248201527f4e46545661756c743a20556e617574686f726973656420626964206d6f64696660448201526234b2b960e91b606482015260840161065b565b6201518081600201546115039190611cd0565b42116115515760405162461bcd60e51b815260206004820152601f60248201527f4e46545661756c743a2043616e6e6f74206d6f64696679206269642079657400604482015260640161065b565b33600090815260066020526040902060018201548311156115eb5760028101548154849161157e91611ce8565b10156115cc5760405162461bcd60e51b815260206004820152601e60248201527f696e73756666696369656e742066726565206269642063617061636974790000604482015260640161065b565b828160020160008282546115e09190611cd0565b909155506114259050565b8282600101546115fb9190611ce8565b81600201600082825461160e9190611ce8565b9091555050604080516060810182523381526020808201958652428284019081526000978852600790915291909520945185546001600160a01b0319166001600160a01b0390911617855592516001850155505051600290910155565b6001600160a01b03811660009081526006602052604081206003810154829067ffffffffffffffff164211801561170c57506001546040516370a0823160e01b81523060048201526001600160a01b03909116906370a0823190602401602060405180830381865afa1580156116e5573d6000803e3d6000fd5b505050506040513d601f19601f820116820180604052508101906117099190611d40565b15155b1561173e57600382015460009061172d9067ffffffffffffffff1642611ce8565b905061173a601982611cff565b9150505b610d0882600101546305f5e10083856000015461175b9190611cff565b6117659190611d1e565b61176f9190611ce8565b611a83565b60008181526008602052604081209061178c83610d10565b6002546040516323b872dd60e01b81529192506001600160a01b0316906323b872dd906117c190339030908690600401611c44565b6020604051808303816000875af11580156117e0573d6000803e3d6000fd5b505050506040513d601f19601f820116820180604052508101906118049190611c68565b50600254604051630852cd8d60e31b8152600481018390526001600160a01b03909116906342966c6890602401600060405180830381600087803b15801561184b57600080fd5b505af115801561185f573d6000803e3d6000fd5b50505050428260020181905550505050565b6000546001600160a01b0316331461189b5760405162461bcd60e51b815260040161065b90611c85565b6001600160a01b0381166119005760405162461bcd60e51b815260206004820152602660248201527f4f776e61626c653a206e6577206f776e657220697320746865207a65726f206160448201526564647265737360d01b606482015260840161065b565b611909816119bc565b50565b600067ffffffffffffffff82111561192357600080fd5b5090565b6001600160a01b0382166000908152600660205260409020805482111561199e5760405162461bcd60e51b815260206004820152602560248201527f4c656e64696e675661756c743a205052494e434950414c5f5245445543455f46604482015264105253115160da1b606482015260840161065b565b818160000160008282546119b29190611ce8565b9091555050505050565b600080546001600160a01b038381166001600160a01b0319831681178455604051919092169283917f8be0079c531659141344cd1fd0a4f28419497f9722a3daafe3b4186f6b6457e09190a35050565b60015460405163a9059cbb60e01b81526001600160a01b038481166004830152602482018490529091169063a9059cbb906044016020604051808303816000875af1158015611a5f573d6000803e3d6000fd5b505050506040513d601f19601f820116820180604052508101906110209190611c68565b6000808212156119235760405162461bcd60e51b815260206004820152600b60248201526a0496e7465676572203c20360ac1b604482015260640161065b565b600060208284031215611ad557600080fd5b5035919050565b80356001600160a01b0381168114611af357600080fd5b919050565b600080600080600060808688031215611b1057600080fd5b611b1986611adc565b9450611b2760208701611adc565b935060408601359250606086013567ffffffffffffffff80821115611b4b57600080fd5b818801915088601f830112611b5f57600080fd5b813581811115611b6e57600080fd5b896020828501011115611b8057600080fd5b9699959850939650602001949392505050565b600060208284031215611ba557600080fd5b611bae82611adc565b9392505050565b60008060408385031215611bc857600080fd5b50508035926020909101359150565b801515811461190957600080fd5b60008060408385031215611bf857600080fd5b823591506020830135611c0a81611bd7565b809150509250929050565b60208152816020820152818360408301376000818301604090810191909152601f909201601f19160101919050565b6001600160a01b039384168152919092166020820152604081019190915260600190565b600060208284031215611c7a57600080fd5b8151611bae81611bd7565b6020808252818101527f4f776e61626c653a2063616c6c6572206973206e6f7420746865206f776e6572604082015260600190565b634e487b7160e01b600052601160045260246000fd5b60008219821115611ce357611ce3611cba565b500190565b600082821015611cfa57611cfa611cba565b500390565b6000816000190483118215151615611d1957611d19611cba565b500290565b600082611d3b57634e487b7160e01b600052601260045260246000fd5b500490565b600060208284031215611d5257600080fd5b505191905056fea26469706673582212202cc7dc651ced91074e8610fee077e972ce38c1032f888e6ecdc138b0c676b96364736f6c634300080a0033",
    "linkReferences": {}
  }
}