{
  "abi": [
    {
      "inputs": [],
      "stateMutability": "nonpayable",
      "type": "constructor"
    },
    {
      "anonymous": false,
      "inputs": [
        {
          "indexed": true,
          "internalType": "address",
          "name": "owner",
          "type": "address"
        },
        {
          "indexed": true,
          "internalType": "address",
          "name": "spender",
          "type": "address"
        },
        {
          "indexed": false,
          "internalType": "uint256",
          "name": "amount",
          "type": "uint256"
        }
      ],
      "name": "Approval",
      "type": "event"
    },
    {
      "anonymous": false,
      "inputs": [
        {
          "indexed": true,
          "internalType": "address",
          "name": "previousOwner",
          "type": "address"
        },
        {
          "indexed": true,
          "internalType": "address",
          "name": "newOwner",
          "type": "address"
        }
      ],
      "name": "OwnershipTransferred",
      "type": "event"
    },
    {
      "anonymous": false,
      "inputs": [
        {
          "indexed": true,
          "internalType": "address",
          "name": "from",
          "type": "address"
        },
        {
          "indexed": true,
          "internalType": "address",
          "name": "to",
          "type": "address"
        },
        {
          "indexed": false,
          "internalType": "uint256",
          "name": "amount",
          "type": "uint256"
        }
      ],
      "name": "Transfer",
      "type": "event"
    },
    {
      "inputs": [],
      "name": "DOMAIN_SEPARATOR",
      "outputs": [
        {
          "internalType": "bytes32",
          "name": "",
          "type": "bytes32"
        }
      ],
      "stateMutability": "view",
      "type": "function"
    },
    {
      "inputs": [
        {
          "internalType": "address",
          "name": "",
          "type": "address"
        },
        {
          "internalType": "address",
          "name": "",
          "type": "address"
        }
      ],
      "name": "allowance",
      "outputs": [
        {
          "internalType": "uint256",
          "name": "",
          "type": "uint256"
        }
      ],
      "stateMutability": "view",
      "type": "function"
    },
    {
      "inputs": [
        {
          "internalType": "address",
          "name": "spender",
          "type": "address"
        },
        {
          "internalType": "uint256",
          "name": "amount",
          "type": "uint256"
        }
      ],
      "name": "approve",
      "outputs": [
        {
          "internalType": "bool",
          "name": "",
          "type": "bool"
        }
      ],
      "stateMutability": "nonpayable",
      "type": "function"
    },
    {
      "inputs": [
        {
          "internalType": "address",
          "name": "",
          "type": "address"
        }
      ],
      "name": "balanceOf",
      "outputs": [
        {
          "internalType": "uint256",
          "name": "",
          "type": "uint256"
        }
      ],
      "stateMutability": "view",
      "type": "function"
    },
    {
      "inputs": [
        {
          "internalType": "uint256",
          "name": "amt",
          "type": "uint256"
        }
      ],
      "name": "burn",
      "outputs": [],
      "stateMutability": "nonpayable",
      "type": "function"
    },
    {
      "inputs": [],
      "name": "decimals",
      "outputs": [
        {
          "internalType": "uint8",
          "name": "",
          "type": "uint8"
        }
      ],
      "stateMutability": "view",
      "type": "function"
    },
    {
      "inputs": [
        {
          "internalType": "address",
          "name": "to",
          "type": "address"
        },
        {
          "internalType": "uint256",
          "name": "amt",
          "type": "uint256"
        }
      ],
      "name": "mint",
      "outputs": [],
      "stateMutability": "nonpayable",
      "type": "function"
    },
    {
      "inputs": [
        {
          "internalType": "uint256",
          "name": "amt",
          "type": "uint256"
        }
      ],
      "name": "mint",
      "outputs": [],
      "stateMutability": "nonpayable",
      "type": "function"
    },
    {
      "inputs": [],
      "name": "name",
      "outputs": [
        {
          "internalType": "string",
          "name": "",
          "type": "string"
        }
      ],
      "stateMutability": "view",
      "type": "function"
    },
    {
      "inputs": [
        {
          "internalType": "address",
          "name": "",
          "type": "address"
        }
      ],
      "name": "nonces",
      "outputs": [
        {
          "internalType": "uint256",
          "name": "",
          "type": "uint256"
        }
      ],
      "stateMutability": "view",
      "type": "function"
    },
    {
      "inputs": [],
      "name": "owner",
      "outputs": [
        {
          "internalType": "address",
          "name": "",
          "type": "address"
        }
      ],
      "stateMutability": "view",
      "type": "function"
    },
    {
      "inputs": [
        {
          "internalType": "address",
          "name": "owner",
          "type": "address"
        },
        {
          "internalType": "address",
          "name": "spender",
          "type": "address"
        },
        {
          "internalType": "uint256",
          "name": "value",
          "type": "uint256"
        },
        {
          "internalType": "uint256",
          "name": "deadline",
          "type": "uint256"
        },
        {
          "internalType": "uint8",
          "name": "v",
          "type": "uint8"
        },
        {
          "internalType": "bytes32",
          "name": "r",
          "type": "bytes32"
        },
        {
          "internalType": "bytes32",
          "name": "s",
          "type": "bytes32"
        }
      ],
      "name": "permit",
      "outputs": [],
      "stateMutability": "nonpayable",
      "type": "function"
    },
    {
      "inputs": [],
      "name": "renounceOwnership",
      "outputs": [],
      "stateMutability": "nonpayable",
      "type": "function"
    },
    {
      "inputs": [],
      "name": "symbol",
      "outputs": [
        {
          "internalType": "string",
          "name": "",
          "type": "string"
        }
      ],
      "stateMutability": "view",
      "type": "function"
    },
    {
      "inputs": [],
      "name": "totalSupply",
      "outputs": [
        {
          "internalType": "uint256",
          "name": "",
          "type": "uint256"
        }
      ],
      "stateMutability": "view",
      "type": "function"
    },
    {
      "inputs": [
        {
          "internalType": "address",
          "name": "to",
          "type": "address"
        },
        {
          "internalType": "uint256",
          "name": "amount",
          "type": "uint256"
        }
      ],
      "name": "transfer",
      "outputs": [
        {
          "internalType": "bool",
          "name": "",
          "type": "bool"
        }
      ],
      "stateMutability": "nonpayable",
      "type": "function"
    },
    {
      "inputs": [
        {
          "internalType": "address",
          "name": "from",
          "type": "address"
        },
        {
          "internalType": "address",
          "name": "to",
          "type": "address"
        },
        {
          "internalType": "uint256",
          "name": "amount",
          "type": "uint256"
        }
      ],
      "name": "transferFrom",
      "outputs": [
        {
          "internalType": "bool",
          "name": "",
          "type": "bool"
        }
      ],
      "stateMutability": "nonpayable",
      "type": "function"
    },
    {
      "inputs": [
        {
          "internalType": "address",
          "name": "newOwner",
          "type": "address"
        }
      ],
      "name": "transferOwnership",
      "outputs": [],
      "stateMutability": "nonpayable",
      "type": "function"
    }
  ],
  "bytecode": {
    "object": "0x60e06040523480156200001157600080fd5b5060408051808201825260098152683632b7322a37b5b2b760b91b602080830191825283518085019094526006845265362a37b5b2b760d11b90840152815191929160129162000065916000919062000198565b5081516200007b90600190602085019062000198565b5060ff81166080524660a05262000091620000aa565b60c05250620000a4915033905062000146565b6200031f565b60007f8b73c3c69bb8fe3d512ecc4cf759cc79239f7b179b0ffacaa9a75d522b39400f6000604051620000de91906200027b565b6040805191829003822060208301939093528101919091527fc89efdaa54c0f20c7adf612882df0950f5a951637e0307cdcb4c672f298b8bc660608201524660808201523060a082015260c00160405160208183030381529060405280519060200120905090565b600680546001600160a01b038381166001600160a01b0319831681179093556040519116919082907f8be0079c531659141344cd1fd0a4f28419497f9722a3daafe3b4186f6b6457e090600090a35050565b828054620001a6906200023e565b90600052602060002090601f016020900481019282620001ca576000855562000215565b82601f10620001e557805160ff191683800117855562000215565b8280016001018555821562000215579182015b8281111562000215578251825591602001919060010190620001f8565b506200022392915062000227565b5090565b5b8082111562000223576000815560010162000228565b600181811c908216806200025357607f821691505b602082108114156200027557634e487b7160e01b600052602260045260246000fd5b50919050565b600080835481600182811c9150808316806200029857607f831692505b6020808410821415620002b957634e487b7160e01b86526022600452602486fd5b818015620002d05760018114620002e25762000311565b60ff1986168952848901965062000311565b60008a81526020902060005b86811015620003095781548b820152908501908301620002ee565b505084890196505b509498975050505050505050565b60805160a05160c051610e216200034f60003960006104e4015260006104af0152600061018b0152610e216000f3fe608060405234801561001057600080fd5b50600436106101165760003560e01c8063715018a6116100a2578063a0712d6811610071578063a0712d681461025a578063a9059cbb1461026d578063d505accf14610280578063dd62ed3e14610293578063f2fde38b146102be57600080fd5b8063715018a61461020f5780637ecebe00146102175780638da5cb5b1461023757806395d89b411461025257600080fd5b8063313ce567116100e9578063313ce567146101865780633644e515146101bf57806340c10f19146101c757806342966c68146101dc57806370a08231146101ef57600080fd5b806306fdde031461011b578063095ea7b31461013957806318160ddd1461015c57806323b872dd14610173575b600080fd5b6101236102d1565b6040516101309190610ac2565b60405180910390f35b61014c610147366004610b33565b61035f565b6040519015158152602001610130565b61016560025481565b604051908152602001610130565b61014c610181366004610b5d565b6103cb565b6101ad7f000000000000000000000000000000000000000000000000000000000000000081565b60405160ff9091168152602001610130565b6101656104ab565b6101da6101d5366004610b33565b610506565b005b6101da6101ea366004610b99565b610547565b6101656101fd366004610bb2565b60036020526000908152604090205481565b6101da610554565b610165610225366004610bb2565b60056020526000908152604090205481565b6006546040516001600160a01b039091168152602001610130565b61012361058a565b6101da610268366004610b99565b610597565b61014c61027b366004610b33565b6105cb565b6101da61028e366004610bd4565b610631565b6101656102a1366004610c47565b600460209081526000928352604080842090915290825290205481565b6101da6102cc366004610bb2565b610882565b600080546102de90610c7a565b80601f016020809104026020016040519081016040528092919081815260200182805461030a90610c7a565b80156103575780601f1061032c57610100808354040283529160200191610357565b820191906000526020600020905b81548152906001019060200180831161033a57829003601f168201915b505050505081565b3360008181526004602090815260408083206001600160a01b038716808552925280832085905551919290917f8c5be1e5ebec7d5bd14f71427d1e84f3dd0314c0f7b2291e5b200ac8c7c3b925906103ba9086815260200190565b60405180910390a350600192915050565b6001600160a01b03831660009081526004602090815260408083203384529091528120546000198114610427576104028382610ccb565b6001600160a01b03861660009081526004602090815260408083203384529091529020555b6001600160a01b0385166000908152600360205260408120805485929061044f908490610ccb565b90915550506001600160a01b0380851660008181526003602052604090819020805487019055519091871690600080516020610dcc833981519152906104989087815260200190565b60405180910390a3506001949350505050565b60007f000000000000000000000000000000000000000000000000000000000000000046146104e1576104dc61091a565b905090565b507f000000000000000000000000000000000000000000000000000000000000000090565b6006546001600160a01b031633146105395760405162461bcd60e51b815260040161053090610ce2565b60405180910390fd5b61054382826109b4565b5050565b6105513382610a0e565b50565b6006546001600160a01b0316331461057e5760405162461bcd60e51b815260040161053090610ce2565b6105886000610a70565b565b600180546102de90610c7a565b6006546001600160a01b031633146105c15760405162461bcd60e51b815260040161053090610ce2565b61055133826109b4565b336000908152600360205260408120805483919083906105ec908490610ccb565b90915550506001600160a01b03831660008181526003602052604090819020805485019055513390600080516020610dcc833981519152906103ba9086815260200190565b428410156106815760405162461bcd60e51b815260206004820152601760248201527f5045524d49545f444541444c494e455f455850495245440000000000000000006044820152606401610530565b600061068b6104ab565b6001600160a01b0389811660008181526005602090815260409182902080546001810190915582517f6e71edae12b1b97f4d1f60370fef10105fa2faae0126114a169c64845d6126c98184015280840194909452938c166060840152608083018b905260a083019390935260c08083018a90528151808403909101815260e08301909152805192019190912061190160f01b6101008301526101028201929092526101228101919091526101420160408051601f198184030181528282528051602091820120600080855291840180845281905260ff88169284019290925260608301869052608083018590529092509060019060a0016020604051602081039080840390855afa1580156107a4573d6000803e3d6000fd5b5050604051601f1901519150506001600160a01b038116158015906107da5750886001600160a01b0316816001600160a01b0316145b6108175760405162461bcd60e51b815260206004820152600e60248201526d24a72b20a624a22fa9a4a3a722a960911b6044820152606401610530565b6001600160a01b0390811660009081526004602090815260408083208b8516808552908352928190208a905551898152919350918a16917f8c5be1e5ebec7d5bd14f71427d1e84f3dd0314c0f7b2291e5b200ac8c7c3b925910160405180910390a350505050505050565b6006546001600160a01b031633146108ac5760405162461bcd60e51b815260040161053090610ce2565b6001600160a01b0381166109115760405162461bcd60e51b815260206004820152602660248201527f4f776e61626c653a206e6577206f776e657220697320746865207a65726f206160448201526564647265737360d01b6064820152608401610530565b61055181610a70565b60007f8b73c3c69bb8fe3d512ecc4cf759cc79239f7b179b0ffacaa9a75d522b39400f600060405161094c9190610d17565b6040805191829003822060208301939093528101919091527fc89efdaa54c0f20c7adf612882df0950f5a951637e0307cdcb4c672f298b8bc660608201524660808201523060a082015260c00160405160208183030381529060405280519060200120905090565b80600260008282546109c69190610db3565b90915550506001600160a01b038216600081815260036020908152604080832080548601905551848152600080516020610dcc83398151915291015b60405180910390a35050565b6001600160a01b03821660009081526003602052604081208054839290610a36908490610ccb565b90915550506002805482900390556040518181526000906001600160a01b03841690600080516020610dcc83398151915290602001610a02565b600680546001600160a01b038381166001600160a01b0319831681179093556040519116919082907f8be0079c531659141344cd1fd0a4f28419497f9722a3daafe3b4186f6b6457e090600090a35050565b600060208083528351808285015260005b81811015610aef57858101830151858201604001528201610ad3565b81811115610b01576000604083870101525b50601f01601f1916929092016040019392505050565b80356001600160a01b0381168114610b2e57600080fd5b919050565b60008060408385031215610b4657600080fd5b610b4f83610b17565b946020939093013593505050565b600080600060608486031215610b7257600080fd5b610b7b84610b17565b9250610b8960208501610b17565b9150604084013590509250925092565b600060208284031215610bab57600080fd5b5035919050565b600060208284031215610bc457600080fd5b610bcd82610b17565b9392505050565b600080600080600080600060e0888a031215610bef57600080fd5b610bf888610b17565b9650610c0660208901610b17565b95506040880135945060608801359350608088013560ff81168114610c2a57600080fd5b9699959850939692959460a0840135945060c09093013592915050565b60008060408385031215610c5a57600080fd5b610c6383610b17565b9150610c7160208401610b17565b90509250929050565b600181811c90821680610c8e57607f821691505b60208210811415610caf57634e487b7160e01b600052602260045260246000fd5b50919050565b634e487b7160e01b600052601160045260246000fd5b600082821015610cdd57610cdd610cb5565b500390565b6020808252818101527f4f776e61626c653a2063616c6c6572206973206e6f7420746865206f776e6572604082015260600190565b600080835481600182811c915080831680610d3357607f831692505b6020808410821415610d5357634e487b7160e01b86526022600452602486fd5b818015610d675760018114610d7857610da5565b60ff19861689528489019650610da5565b60008a81526020902060005b86811015610d9d5781548b820152908501908301610d84565b505084890196505b509498975050505050505050565b60008219821115610dc657610dc6610cb5565b50019056feddf252ad1be2c89b69c2b068fc378daa952ba7f163c4a11628f55a4df523b3efa264697066735822122025c882451db2e37f0415b565f868966f3ea6f147cd5080a4bb6ec0fb12531ae964736f6c634300080a0033",
    "linkReferences": {}
  }
}