{
  "abi": [
    {
      "inputs": [
        {
          "internalType": "uint256",
          "name": "id",
          "type": "uint256"
        }
      ],
      "name": "tokenURIBuilder",
      "outputs": [
        {
          "internalType": "string",
          "name": "",
          "type": "string"
        }
      ],
      "stateMutability": "view",
      "type": "function"
    }
  ],
  "bytecode": {
    "object": "0x610bad61003a600b82828239805160001a60731461002d57634e487b7160e01b600052600060045260246000fd5b30600052607381538281f3fe73000000000000000000000000000000000000000030146080604052600436106100355760003560e01c806334066cc21461003a575b600080fd5b61004d610048366004610596565b610063565b60405161005a91906105df565b60405180910390f35b606061006d61056e565b6040518061014001604052806101058152602001610a3c6101059139815261009483610197565b8160016020020181905250604051806060016040528060378152602001610b416037913960408201526100c63061029d565b60608201908152604080518082018252600d81526c1e17ba32bc3a1f1e17b9bb339f60991b60208083019190915260808501829052845181860151848701519551945160009661011e96939592949093929101610628565b6040516020818303038152906040529050600061016b61013d86610197565b610146846103e4565b604051602001610157929190610693565b6040516020818303038152906040526103e4565b90508060405160200161017e919061075f565b60408051601f1981840301815291905295945050505050565b6060816101bb5750506040805180820190915260018152600360fc1b602082015290565b8160005b81156101e557806101cf816107ba565b91506101de9050600a836107eb565b91506101bf565b60008167ffffffffffffffff811115610200576102006107ff565b6040519080825280601f01601f19166020018201604052801561022a576020820181803683370190505b5090505b84156102955761023f600183610815565b915061024c600a8661082c565b610257906030610840565b60f81b81838151811061026c5761026c610612565b60200101906001600160f81b031916908160001a90535061028e600a866107eb565b945061022e565b949350505050565b60408051602880825260608281019093526000919060208201818036833701905050905060005b60148110156103dd5760006102da826013610815565b6102e5906008610858565b6102f090600261095d565b610303906001600160a01b0387166107eb565b60f81b9050600060108260f81c61031a9190610970565b60f81b905060008160f81c60106103319190610992565b8360f81c61033f91906109b3565b60f81b905061034d82610538565b85610359866002610858565b8151811061036957610369610612565b60200101906001600160f81b031916908160001a90535061038981610538565b85610395866002610858565b6103a0906001610840565b815181106103b0576103b0610612565b60200101906001600160f81b031916908160001a90535050505080806103d5906107ba565b9150506102c4565b5092915050565b606081516000141561040457505060408051602081019091526000815290565b60006040518060600160405280604081526020016109fc60409139905060006003845160026104339190610840565b61043d91906107eb565b610448906004610858565b67ffffffffffffffff811115610460576104606107ff565b6040519080825280601f01601f19166020018201604052801561048a576020820181803683370190505b509050600182016020820185865187015b808210156104f6576003820191508151603f8160121c168501518453600184019350603f81600c1c168501518453600184019350603f8160061c168501518453600184019350603f811685015184535060018301925061049b565b505060038651066001811461051257600281146105255761052d565b603d6001830353603d600283035361052d565b603d60018303535b509195945050505050565b6000600a60f883901c101561055f5761055660f883901c60306109d6565b60f81b92915050565b61055660f883901c60576109d6565b6040518061022001604052806011905b606081526020019060019003908161057e5790505090565b6000602082840312156105a857600080fd5b5035919050565b60005b838110156105ca5781810151838201526020016105b2565b838111156105d9576000848401525b50505050565b60208152600082518060208401526105fe8160408501602087016105af565b601f01601f19169190910160400192915050565b634e487b7160e01b600052603260045260246000fd5b6000865161063a818460208b016105af565b86519083019061064e818360208b016105af565b8651910190610661818360208a016105af565b85519101906106748183602089016105af565b84519101906106878183602088016105af565b01979650505050505050565b737b226e616d65223a20224d6f636b204e4654202360601b815282516000906106c38160148501602088016105af565b7f222c20226465736372697074696f6e223a20224d6f636b204e465420776974686014918401918201527f20535647206d657461646174612e222c2022696d616765223a2022646174613a6034820152741a5b5859d94bdcdd99cade1b5b0ed8985cd94d8d0b605a1b605482015283516107448160698401602088016105af565b61227d60f01b60699290910191820152606b01949350505050565b7f646174613a6170706c69636174696f6e2f6a736f6e3b6261736536342c00000081526000825161079781601d8501602087016105af565b91909101601d0192915050565b634e487b7160e01b600052601160045260246000fd5b60006000198214156107ce576107ce6107a4565b5060010190565b634e487b7160e01b600052601260045260246000fd5b6000826107fa576107fa6107d5565b500490565b634e487b7160e01b600052604160045260246000fd5b600082821015610827576108276107a4565b500390565b60008261083b5761083b6107d5565b500690565b60008219821115610853576108536107a4565b500190565b6000816000190483118215151615610872576108726107a4565b500290565b600181815b808511156108b2578160001904821115610898576108986107a4565b808516156108a557918102915b93841c939080029061087c565b509250929050565b6000826108c957506001610957565b816108d657506000610957565b81600181146108ec57600281146108f657610912565b6001915050610957565b60ff841115610907576109076107a4565b50506001821b610957565b5060208310610133831016604e8410600b8410161715610935575081810a610957565b61093f8383610877565b8060001904821115610953576109536107a4565b0290505b92915050565b600061096983836108ba565b9392505050565b600060ff831680610983576109836107d5565b8060ff84160491505092915050565b600060ff821660ff84168160ff0481118215151615610953576109536107a4565b600060ff821660ff8416808210156109cd576109cd6107a4565b90039392505050565b600060ff821660ff84168060ff038211156109f3576109f36107a4565b01939250505056fe4142434445464748494a4b4c4d4e4f505152535455565758595a6162636465666768696a6b6c6d6e6f707172737475767778797a303132333435363738392b2f3c73766720786d6c6e733d22687474703a2f2f7777772e77332e6f72672f323030302f73766722207072657365727665417370656374526174696f3d22784d696e594d696e206d656574222076696577426f783d223020302033353020333530223e3c7374796c653e2e62617365207b2066696c6c3a20626c61636b3b20666f6e742d66616d696c793a2073657269663b20666f6e742d73697a653a20313470783b207d3c2f7374796c653e3c726563742077696474683d223130302522206865696768743d2231303025222066696c6c3d22776869746522202f3e3c7465787420783d2231302220793d2232302220636c6173733d2262617365223e4e46542049443a203c2f746578743e3c7465787420783d2231302220793d2234302220636c6173733d2262617365223e20436f6c6c656374696f6e3a203078a2646970667358221220e071804b28297891c2f3fff277d73d8e58c491d676257a85ea4233372e5da08064736f6c634300080a0033",
    "linkReferences": {}
  }
}